{
  "_format": "hh-sol-artifact-1",
  "contractName": "CryptoFantasy",
  "sourceName": "contracts/cryptoFantasy.sol",
  "abi": [
    {
      "inputs": [],
      "stateMutability": "nonpayable",
      "type": "constructor"
    },
    {
      "inputs": [],
      "name": "CryptoFantasy__AlreadyJoinedThisContest",
      "type": "error"
    },
    {
      "inputs": [],
      "name": "CryptoFantasy__CheckTimingsOfContest",
      "type": "error"
    },
    {
      "inputs": [],
      "name": "CryptoFantasy__ContestEnded",
      "type": "error"
    },
    {
      "inputs": [],
      "name": "CryptoFantasy__ContestNotStartedYet",
      "type": "error"
    },
    {
      "inputs": [],
      "name": "CryptoFantasy__JoiningDeadlinePassed",
      "type": "error"
    },
    {
      "inputs": [],
      "name": "CryptoFantasy__ValueNotEqualToEntryFee",
      "type": "error"
    },
    {
      "anonymous": false,
      "inputs": [
        {
          "indexed": true,
          "internalType": "bytes32",
          "name": "id",
          "type": "bytes32"
        }
      ],
      "name": "ChainlinkCancelled",
      "type": "event"
    },
    {
      "anonymous": false,
      "inputs": [
        {
          "indexed": true,
          "internalType": "bytes32",
          "name": "id",
          "type": "bytes32"
        }
      ],
      "name": "ChainlinkFulfilled",
      "type": "event"
    },
    {
      "anonymous": false,
      "inputs": [
        {
          "indexed": true,
          "internalType": "bytes32",
          "name": "id",
          "type": "bytes32"
        }
      ],
      "name": "ChainlinkRequested",
      "type": "event"
    },
    {
      "anonymous": false,
      "inputs": [
        {
          "indexed": false,
          "internalType": "uint256",
          "name": "contestId",
          "type": "uint256"
        },
        {
          "indexed": false,
          "internalType": "uint256",
          "name": "apiMatchId",
          "type": "uint256"
        },
        {
          "indexed": false,
          "internalType": "uint256",
          "name": "entryFee",
          "type": "uint256"
        },
        {
          "indexed": false,
          "internalType": "uint256",
          "name": "poolPrize",
          "type": "uint256"
        },
        {
          "indexed": false,
          "internalType": "address",
          "name": "winner",
          "type": "address"
        },
        {
          "indexed": false,
          "internalType": "uint256",
          "name": "totalTeams",
          "type": "uint256"
        },
        {
          "indexed": false,
          "internalType": "address[]",
          "name": "teamOwners",
          "type": "address[]"
        },
        {
          "indexed": false,
          "internalType": "uint256",
          "name": "endDateTime",
          "type": "uint256"
        }
      ],
      "name": "ContestCreated",
      "type": "event"
    },
    {
      "anonymous": false,
      "inputs": [
        {
          "indexed": false,
          "internalType": "uint256",
          "name": "contestId",
          "type": "uint256"
        },
        {
          "indexed": false,
          "internalType": "uint256",
          "name": "apiMatchId",
          "type": "uint256"
        },
        {
          "indexed": false,
          "internalType": "uint256",
          "name": "entryFee",
          "type": "uint256"
        },
        {
          "indexed": false,
          "internalType": "uint256",
          "name": "poolPrize",
          "type": "uint256"
        },
        {
          "indexed": false,
          "internalType": "address",
          "name": "winner",
          "type": "address"
        },
        {
          "indexed": false,
          "internalType": "uint256",
          "name": "totalTeams",
          "type": "uint256"
        },
        {
          "indexed": false,
          "internalType": "address[]",
          "name": "teamOwners",
          "type": "address[]"
        },
        {
          "indexed": false,
          "internalType": "uint256",
          "name": "endDateTime",
          "type": "uint256"
        }
      ],
      "name": "ContestUpdated",
      "type": "event"
    },
    {
      "anonymous": false,
      "inputs": [
        {
          "indexed": true,
          "internalType": "address",
          "name": "from",
          "type": "address"
        },
        {
          "indexed": true,
          "internalType": "address",
          "name": "to",
          "type": "address"
        }
      ],
      "name": "OwnershipTransferRequested",
      "type": "event"
    },
    {
      "anonymous": false,
      "inputs": [
        {
          "indexed": true,
          "internalType": "address",
          "name": "from",
          "type": "address"
        },
        {
          "indexed": true,
          "internalType": "address",
          "name": "to",
          "type": "address"
        }
      ],
      "name": "OwnershipTransferred",
      "type": "event"
    },
    {
      "anonymous": false,
      "inputs": [
        {
          "indexed": true,
          "internalType": "bytes32",
          "name": "requestId",
          "type": "bytes32"
        },
        {
          "indexed": false,
          "internalType": "uint256[]",
          "name": "data",
          "type": "uint256[]"
        }
      ],
      "name": "RequestFulfilledEvent",
      "type": "event"
    },
    {
      "anonymous": false,
      "inputs": [
        {
          "indexed": false,
          "internalType": "uint256",
          "name": "contestId",
          "type": "uint256"
        },
        {
          "indexed": false,
          "internalType": "uint256",
          "name": "apiMatchId",
          "type": "uint256"
        },
        {
          "indexed": false,
          "internalType": "address",
          "name": "teamOwner",
          "type": "address"
        },
        {
          "indexed": false,
          "internalType": "uint256",
          "name": "teamScores",
          "type": "uint256"
        },
        {
          "indexed": false,
          "internalType": "uint256[11]",
          "name": "players",
          "type": "uint256[11]"
        }
      ],
      "name": "TeamJoined",
      "type": "event"
    },
    {
      "anonymous": false,
      "inputs": [
        {
          "indexed": false,
          "internalType": "uint256",
          "name": "contestId",
          "type": "uint256"
        },
        {
          "indexed": false,
          "internalType": "uint256",
          "name": "apiMatchId",
          "type": "uint256"
        },
        {
          "indexed": false,
          "internalType": "address",
          "name": "teamOwners",
          "type": "address"
        },
        {
          "indexed": false,
          "internalType": "uint256",
          "name": "teamScores",
          "type": "uint256"
        },
        {
          "indexed": false,
          "internalType": "uint256[11]",
          "name": "players",
          "type": "uint256[11]"
        }
      ],
      "name": "TeamUpdated",
      "type": "event"
    },
    {
      "inputs": [],
      "name": "acceptOwnership",
      "outputs": [],
      "stateMutability": "nonpayable",
      "type": "function"
    },
    {
      "inputs": [
        {
          "internalType": "uint256",
          "name": "",
          "type": "uint256"
        }
      ],
      "name": "contestByMatchId",
      "outputs": [
        {
          "internalType": "uint256",
          "name": "contestId",
          "type": "uint256"
        },
        {
          "internalType": "uint256",
          "name": "apiMatchId",
          "type": "uint256"
        },
        {
          "internalType": "uint256",
          "name": "entryFee",
          "type": "uint256"
        },
        {
          "internalType": "uint256",
          "name": "poolPrize",
          "type": "uint256"
        },
        {
          "internalType": "address payable",
          "name": "winner",
          "type": "address"
        },
        {
          "internalType": "uint256",
          "name": "totalTeams",
          "type": "uint256"
        },
        {
          "internalType": "uint256",
          "name": "startDateTime",
          "type": "uint256"
        },
        {
          "internalType": "uint256",
          "name": "endDateTime",
          "type": "uint256"
        },
        {
          "internalType": "uint256",
          "name": "joinDeadline",
          "type": "uint256"
        }
      ],
      "stateMutability": "view",
      "type": "function"
    },
    {
      "inputs": [
        {
          "internalType": "address",
          "name": "",
          "type": "address"
        },
        {
          "internalType": "uint256",
          "name": "",
          "type": "uint256"
        }
      ],
      "name": "contestPlayedByUser",
      "outputs": [
        {
          "internalType": "uint256",
          "name": "contestId",
          "type": "uint256"
        },
        {
          "internalType": "uint256",
          "name": "apiMatchId",
          "type": "uint256"
        },
        {
          "internalType": "uint256",
          "name": "entryFee",
          "type": "uint256"
        },
        {
          "internalType": "uint256",
          "name": "poolPrize",
          "type": "uint256"
        },
        {
          "internalType": "address payable",
          "name": "winner",
          "type": "address"
        },
        {
          "internalType": "uint256",
          "name": "totalTeams",
          "type": "uint256"
        },
        {
          "internalType": "uint256",
          "name": "startDateTime",
          "type": "uint256"
        },
        {
          "internalType": "uint256",
          "name": "endDateTime",
          "type": "uint256"
        },
        {
          "internalType": "uint256",
          "name": "joinDeadline",
          "type": "uint256"
        }
      ],
      "stateMutability": "view",
      "type": "function"
    },
    {
      "inputs": [
        {
          "internalType": "uint256",
          "name": "matchId",
          "type": "uint256"
        },
        {
          "internalType": "uint256",
          "name": "fee",
          "type": "uint256"
        },
        {
          "internalType": "uint256",
          "name": "startDateTime",
          "type": "uint256"
        },
        {
          "internalType": "uint256",
          "name": "endDateTime",
          "type": "uint256"
        },
        {
          "internalType": "uint256",
          "name": "joinDeadline",
          "type": "uint256"
        }
      ],
      "name": "createContest",
      "outputs": [],
      "stateMutability": "nonpayable",
      "type": "function"
    },
    {
      "inputs": [
        {
          "internalType": "uint256",
          "name": "contestId",
          "type": "uint256"
        }
      ],
      "name": "findWinner",
      "outputs": [],
      "stateMutability": "nonpayable",
      "type": "function"
    },
    {
      "inputs": [
        {
          "internalType": "bytes32",
          "name": "requestId",
          "type": "bytes32"
        },
        {
          "internalType": "uint256[]",
          "name": "data",
          "type": "uint256[]"
        }
      ],
      "name": "fulfillPlayerData",
      "outputs": [],
      "stateMutability": "nonpayable",
      "type": "function"
    },
    {
      "inputs": [
        {
          "internalType": "bytes32",
          "name": "requestId",
          "type": "bytes32"
        },
        {
          "internalType": "uint256[]",
          "name": "data",
          "type": "uint256[]"
        }
      ],
      "name": "fulfillScoreData",
      "outputs": [],
      "stateMutability": "nonpayable",
      "type": "function"
    },
    {
      "inputs": [
        {
          "internalType": "uint256",
          "name": "contestId",
          "type": "uint256"
        }
      ],
      "name": "getContestData",
      "outputs": [],
      "stateMutability": "nonpayable",
      "type": "function"
    },
    {
      "inputs": [
        {
          "internalType": "address",
          "name": "user",
          "type": "address"
        }
      ],
      "name": "getContestPlayedByUser",
      "outputs": [
        {
          "components": [
            {
              "internalType": "uint256",
              "name": "contestId",
              "type": "uint256"
            },
            {
              "internalType": "uint256",
              "name": "apiMatchId",
              "type": "uint256"
            },
            {
              "internalType": "uint256",
              "name": "entryFee",
              "type": "uint256"
            },
            {
              "internalType": "uint256",
              "name": "poolPrize",
              "type": "uint256"
            },
            {
              "internalType": "address payable",
              "name": "winner",
              "type": "address"
            },
            {
              "internalType": "uint256",
              "name": "totalTeams",
              "type": "uint256"
            },
            {
              "internalType": "address[]",
              "name": "teamOwners",
              "type": "address[]"
            },
            {
              "internalType": "uint256",
              "name": "startDateTime",
              "type": "uint256"
            },
            {
              "internalType": "uint256",
              "name": "endDateTime",
              "type": "uint256"
            },
            {
              "internalType": "uint256",
              "name": "joinDeadline",
              "type": "uint256"
            }
          ],
          "internalType": "struct CryptoFantasy.Contest[]",
          "name": "",
          "type": "tuple[]"
        }
      ],
      "stateMutability": "view",
      "type": "function"
    },
    {
      "inputs": [
        {
          "internalType": "uint256",
          "name": "contestId",
          "type": "uint256"
        },
        {
          "internalType": "address",
          "name": "user",
          "type": "address"
        }
      ],
      "name": "getContestTeamOfUser",
      "outputs": [
        {
          "components": [
            {
              "internalType": "address",
              "name": "teamOwner",
              "type": "address"
            },
            {
              "internalType": "uint256[11]",
              "name": "playerIds",
              "type": "uint256[11]"
            },
            {
              "internalType": "uint256",
              "name": "score",
              "type": "uint256"
            }
          ],
          "internalType": "struct CryptoFantasy.Team",
          "name": "",
          "type": "tuple"
        }
      ],
      "stateMutability": "view",
      "type": "function"
    },
    {
      "inputs": [
        {
          "internalType": "uint256",
          "name": "contestId",
          "type": "uint256"
        }
      ],
      "name": "getContestTeams",
      "outputs": [
        {
          "components": [
            {
              "internalType": "address",
              "name": "teamOwner",
              "type": "address"
            },
            {
              "internalType": "uint256[11]",
              "name": "playerIds",
              "type": "uint256[11]"
            },
            {
              "internalType": "uint256",
              "name": "score",
              "type": "uint256"
            }
          ],
          "internalType": "struct CryptoFantasy.Team[]",
          "name": "",
          "type": "tuple[]"
        }
      ],
      "stateMutability": "view",
      "type": "function"
    },
    {
      "inputs": [
        {
          "internalType": "uint256",
          "name": "contestId",
          "type": "uint256"
        },
        {
          "internalType": "uint256[11]",
          "name": "playerIds",
          "type": "uint256[11]"
        }
      ],
      "name": "joinMatch",
      "outputs": [],
      "stateMutability": "payable",
      "type": "function"
    },
    {
      "inputs": [],
      "name": "numberOfContests",
      "outputs": [
        {
          "internalType": "uint256",
          "name": "",
          "type": "uint256"
        }
      ],
      "stateMutability": "view",
      "type": "function"
    },
    {
      "inputs": [],
      "name": "owner",
      "outputs": [
        {
          "internalType": "address",
          "name": "",
          "type": "address"
        }
      ],
      "stateMutability": "view",
      "type": "function"
    },
    {
      "inputs": [
        {
          "internalType": "uint256",
          "name": "contestId",
          "type": "uint256"
        },
        {
          "internalType": "uint256",
          "name": "matchId",
          "type": "uint256"
        },
        {
          "internalType": "bool",
          "name": "dataType",
          "type": "bool"
        }
      ],
      "name": "requestContestData",
      "outputs": [],
      "stateMutability": "nonpayable",
      "type": "function"
    },
    {
      "inputs": [
        {
          "internalType": "uint256",
          "name": "",
          "type": "uint256"
        },
        {
          "internalType": "address",
          "name": "",
          "type": "address"
        }
      ],
      "name": "teamsOfContest",
      "outputs": [
        {
          "internalType": "address",
          "name": "teamOwner",
          "type": "address"
        },
        {
          "internalType": "uint256",
          "name": "score",
          "type": "uint256"
        }
      ],
      "stateMutability": "view",
      "type": "function"
    },
    {
      "inputs": [
        {
          "internalType": "uint256",
          "name": "",
          "type": "uint256"
        }
      ],
      "name": "totalContest",
      "outputs": [
        {
          "internalType": "uint256",
          "name": "contestId",
          "type": "uint256"
        },
        {
          "internalType": "uint256",
          "name": "apiMatchId",
          "type": "uint256"
        },
        {
          "internalType": "uint256",
          "name": "entryFee",
          "type": "uint256"
        },
        {
          "internalType": "uint256",
          "name": "poolPrize",
          "type": "uint256"
        },
        {
          "internalType": "address payable",
          "name": "winner",
          "type": "address"
        },
        {
          "internalType": "uint256",
          "name": "totalTeams",
          "type": "uint256"
        },
        {
          "internalType": "uint256",
          "name": "startDateTime",
          "type": "uint256"
        },
        {
          "internalType": "uint256",
          "name": "endDateTime",
          "type": "uint256"
        },
        {
          "internalType": "uint256",
          "name": "joinDeadline",
          "type": "uint256"
        }
      ],
      "stateMutability": "view",
      "type": "function"
    },
    {
      "inputs": [
        {
          "internalType": "address",
          "name": "to",
          "type": "address"
        }
      ],
      "name": "transferOwnership",
      "outputs": [],
      "stateMutability": "nonpayable",
      "type": "function"
    }
  ],
  "bytecode": "0x608060405260016004553480156200001657600080fd5b50338060008073ffffffffffffffffffffffffffffffffffffffff168273ffffffffffffffffffffffffffffffffffffffff1614156200008d576040517f08c379a0000000000000000000000000000000000000000000000000000000008152600401620000849062000370565b60405180910390fd5b81600660006101000a81548173ffffffffffffffffffffffffffffffffffffffff021916908373ffffffffffffffffffffffffffffffffffffffff160217905550600073ffffffffffffffffffffffffffffffffffffffff168173ffffffffffffffffffffffffffffffffffffffff1614620001155762000114816200016860201b60201c565b5b5050506200013d73326c977e6efc84e512bb9c30f76e30c160ed06fb6200029a60201b60201c565b6200016273edaa6962cf1368a92e244ddc11aac49c0a0acc37620002de60201b60201c565b62000417565b3373ffffffffffffffffffffffffffffffffffffffff168173ffffffffffffffffffffffffffffffffffffffff161415620001da576040517f08c379a0000000000000000000000000000000000000000000000000000000008152600401620001d19062000392565b60405180910390fd5b80600760006101000a81548173ffffffffffffffffffffffffffffffffffffffff021916908373ffffffffffffffffffffffffffffffffffffffff1602179055508073ffffffffffffffffffffffffffffffffffffffff16600660009054906101000a900473ffffffffffffffffffffffffffffffffffffffff1673ffffffffffffffffffffffffffffffffffffffff167fed8889f560326eb138920d842192f0eb3dd22b4f139c87a2c57538e05bae127860405160405180910390a350565b80600260006101000a81548173ffffffffffffffffffffffffffffffffffffffff021916908373ffffffffffffffffffffffffffffffffffffffff16021790555050565b80600360006101000a81548173ffffffffffffffffffffffffffffffffffffffff021916908373ffffffffffffffffffffffffffffffffffffffff16021790555050565b600062000331601883620003b4565b91506200033e82620003c5565b602082019050919050565b600062000358601783620003b4565b91506200036582620003ee565b602082019050919050565b600060208201905081810360008301526200038b8162000322565b9050919050565b60006020820190508181036000830152620003ad8162000349565b9050919050565b600082825260208201905092915050565b7f43616e6e6f7420736574206f776e657220746f207a65726f0000000000000000600082015250565b7f43616e6e6f74207472616e7366657220746f2073656c66000000000000000000600082015250565b614c5480620004276000396000f3fe6080604052600436106101095760003560e01c8063ccb8e60e11610095578063ebadb4b811610064578063ebadb4b81461037b578063f2fde38b146103b8578063f7b70b28146103e1578063f7ba6e8b14610426578063f7e4a35d1461044f57610109565b8063ccb8e60e146102ac578063d0af7d2a146102f1578063df9bbefc14610336578063e51422721461035257610109565b80638da5cb5b116100dc5780638da5cb5b146101b55780639ac6f0a2146101e05780639bb517f01461021d578063b73d2b631461025a578063c6d60eda1461028357610109565b806305e49d1d1461010e57806331b58330146101375780636b1fbc901461017557806379ba50971461019e575b600080fd5b34801561011a57600080fd5b506101356004803603810190610130919061357b565b61047a565b005b34801561014357600080fd5b5061015e600480360381019061015991906135a8565b610523565b60405161016c929190613df4565b60405180910390f35b34801561018157600080fd5b5061019c6004803603810190610197919061367c565b610574565b005b3480156101aa57600080fd5b506101b3610981565b005b3480156101c157600080fd5b506101ca610b18565b6040516101d79190613dd9565b60405180910390f35b3480156101ec57600080fd5b50610207600480360381019061020291906135a8565b610b42565b6040516102149190613fd7565b60405180910390f35b34801561022957600080fd5b50610244600480360381019061023f919061357b565b610c52565b6040516102519190613ef3565b60405180910390f35b34801561026657600080fd5b50610281600480360381019061027c919061357b565b610eae565b005b34801561028f57600080fd5b506102aa60048036038101906102a5919061351f565b611031565b005b3480156102b857600080fd5b506102d360048036038101906102ce919061357b565b611212565b6040516102e8999897969594939291906140e7565b60405180910390f35b3480156102fd57600080fd5b50610318600480360381019061031391906134b2565b611280565b60405161032d999897969594939291906140e7565b60405180910390f35b610350600480360381019061034b91906135e8565b61130b565b005b34801561035e57600080fd5b506103796004803603810190610374919061351f565b61199b565b005b34801561038757600080fd5b506103a2600480360381019061039d9190613485565b611b7c565b6040516103af9190613ed1565b60405180910390f35b3480156103c457600080fd5b506103df60048036038101906103da9190613485565b611d4f565b005b3480156103ed57600080fd5b506104086004803603810190610403919061357b565b611d63565b60405161041d999897969594939291906140e7565b60405180910390f35b34801561043257600080fd5b5061044d60048036038101906104489190613629565b611dd1565b005b34801561045b57600080fd5b50610464611fed565b6040516104719190613ff3565b60405180910390f35b610482611ff3565b60005b6016811015610516576009600083815260200190815260200160002081601681106104b3576104b261493b565b5b0154600860008481526020019081526020016000206000600a600086815260200190815260200160002084601681106104ef576104ee61493b565b5b0154815260200190815260200160002081905550808061050e9061480b565b915050610485565b5061052081612085565b50565b600c602052816000526040600020602052806000526040600020600091509150508060000160009054906101000a900473ffffffffffffffffffffffffffffffffffffffff169080600c0154905082565b61057c611ff3565b600f600081548092919061058f9061480b565b9190505550604051806101400160405280600f54815260200186815260200185815260200160008152602001600073ffffffffffffffffffffffffffffffffffffffff16815260200160008152602001600067ffffffffffffffff8111156105fa576105f961496a565b5b6040519080825280602002602001820160405280156106285781602001602082028036833780820191505090505b50815260200184815260200183815260200182815250600b6000600f5481526020019081526020016000206000820151816000015560208201518160010155604082015181600201556060820151816003015560808201518160040160006101000a81548173ffffffffffffffffffffffffffffffffffffffff021916908373ffffffffffffffffffffffffffffffffffffffff16021790555060a0820151816005015560c08201518160060190805190602001906106e89291906130cc565b5060e0820151816007015561010082015181600801556101208201518160090155905050600b6000600f548152602001908152602001600020600e6000878152602001908152602001600020600082015481600001556001820154816001015560028201548160020155600382015481600301556004820160009054906101000a900473ffffffffffffffffffffffffffffffffffffffff168160040160006101000a81548173ffffffffffffffffffffffffffffffffffffffff021916908373ffffffffffffffffffffffffffffffffffffffff1602179055506005820154816005015560068201816006019080546107e3929190613156565b506007820154816007015560088201548160080155600982015481600901559050507f2cec8bb16395c13b56cce009ed1f84b9f2f14dd273a3b8ec1b4c09789b8ecc43600b6000600f54815260200190815260200160002060000154600b6000600f54815260200190815260200160002060010154600b6000600f54815260200190815260200160002060020154600b6000600f54815260200190815260200160002060030154600b6000600f54815260200190815260200160002060040160009054906101000a900473ffffffffffffffffffffffffffffffffffffffff16600b6000600f54815260200190815260200160002060050154600b6000600f548152602001908152602001600020600601600b6000600f54815260200190815260200160002060080154604051610921989796959493929190614062565b60405180910390a180831015806109385750818310155b806109435750818110155b1561097a576040517fca1d716900000000000000000000000000000000000000000000000000000000815260040160405180910390fd5b5050505050565b600760009054906101000a900473ffffffffffffffffffffffffffffffffffffffff1673ffffffffffffffffffffffffffffffffffffffff163373ffffffffffffffffffffffffffffffffffffffff1614610a11576040517f08c379a0000000000000000000000000000000000000000000000000000000008152600401610a0890613f37565b60405180910390fd5b6000600660009054906101000a900473ffffffffffffffffffffffffffffffffffffffff16905033600660006101000a81548173ffffffffffffffffffffffffffffffffffffffff021916908373ffffffffffffffffffffffffffffffffffffffff1602179055506000600760006101000a81548173ffffffffffffffffffffffffffffffffffffffff021916908373ffffffffffffffffffffffffffffffffffffffff1602179055503373ffffffffffffffffffffffffffffffffffffffff168173ffffffffffffffffffffffffffffffffffffffff167f8be0079c531659141344cd1fd0a4f28419497f9722a3daafe3b4186f6b6457e060405160405180910390a350565b6000600660009054906101000a900473ffffffffffffffffffffffffffffffffffffffff16905090565b610b4a6131a8565b600c600084815260200190815260200160002060008373ffffffffffffffffffffffffffffffffffffffff1673ffffffffffffffffffffffffffffffffffffffff1681526020019081526020016000206040518060600160405290816000820160009054906101000a900473ffffffffffffffffffffffffffffffffffffffff1673ffffffffffffffffffffffffffffffffffffffff1673ffffffffffffffffffffffffffffffffffffffff16815260200160018201600b806020026040519081016040528092919082600b8015610c37576020028201915b815481526020019060010190808311610c23575b50505050508152602001600c82015481525050905092915050565b60606000600b6000848152602001908152602001600020600601805480602002602001604051908101604052809291908181526020018280548015610cec57602002820191906000526020600020905b8160009054906101000a900473ffffffffffffffffffffffffffffffffffffffff1673ffffffffffffffffffffffffffffffffffffffff1681526020019060010190808311610ca2575b505050505090506000815167ffffffffffffffff811115610d1057610d0f61496a565b5b604051908082528060200260200182016040528015610d4957816020015b610d366131a8565b815260200190600190039081610d2e5790505b50905060005b8251811015610ea357600c60008681526020019081526020016000206000848381518110610d8057610d7f61493b565b5b602002602001015173ffffffffffffffffffffffffffffffffffffffff1673ffffffffffffffffffffffffffffffffffffffff1681526020019081526020016000206040518060600160405290816000820160009054906101000a900473ffffffffffffffffffffffffffffffffffffffff1673ffffffffffffffffffffffffffffffffffffffff1673ffffffffffffffffffffffffffffffffffffffff16815260200160018201600b806020026040519081016040528092919082600b8015610e5f576020028201915b815481526020019060010190808311610e4b575b50505050508152602001600c82015481525050828281518110610e8557610e8461493b565b5b60200260200101819052508080610e9b9061480b565b915050610d4f565b508092505050919050565b610eb6611ff3565b6000600b600083815260200190815260200160002060405180610140016040529081600082015481526020016001820154815260200160028201548152602001600382015481526020016004820160009054906101000a900473ffffffffffffffffffffffffffffffffffffffff1673ffffffffffffffffffffffffffffffffffffffff1673ffffffffffffffffffffffffffffffffffffffff1681526020016005820154815260200160068201805480602002602001604051908101604052809291908181526020018280548015610fe457602002820191906000526020600020905b8160009054906101000a900473ffffffffffffffffffffffffffffffffffffffff1673ffffffffffffffffffffffffffffffffffffffff1681526020019060010190808311610f9a575b505050505081526020016007820154815260200160088201548152602001600982015481525050905061101d8282602001516001611dd1565b61102d8282602001516000611dd1565b5050565b816005600082815260200190815260200160002060009054906101000a900473ffffffffffffffffffffffffffffffffffffffff1673ffffffffffffffffffffffffffffffffffffffff163373ffffffffffffffffffffffffffffffffffffffff16146110d3576040517f08c379a00000000000000000000000000000000000000000000000000000000081526004016110ca90613fb7565b60405180910390fd5b6005600082815260200190815260200160002060006101000a81549073ffffffffffffffffffffffffffffffffffffffff0219169055807f7cc135e0cebb02c3480ae5d74d377283180a2601f8f644edf7987b009316c63a60405160405180910390a2827fc3bece9eff4a8466fe129f2f8e55aa63a0e1f3df7ed135aa9ee22657b204dc47836040516111669190613f15565b60405180910390a26000826000815181106111845761118361493b565b5b602002602001015190506000600190505b60178160ff16101561120b57838160ff16815181106111b7576111b661493b565b5b6020026020010151600960008481526020019081526020016000206001836111df9190614630565b60ff16601681106111f3576111f261493b565b5b0181905550808061120390614854565b915050611195565b5050505050565b600e6020528060005260406000206000915090508060000154908060010154908060020154908060030154908060040160009054906101000a900473ffffffffffffffffffffffffffffffffffffffff16908060050154908060070154908060080154908060090154905089565b600d602052816000526040600020818154811061129c57600080fd5b90600052602060002090600a0201600091509150508060000154908060010154908060020154908060030154908060040160009054906101000a900473ffffffffffffffffffffffffffffffffffffffff16908060050154908060070154908060080154908060090154905089565b6000600b60008481526020019081526020016000209050600073ffffffffffffffffffffffffffffffffffffffff16600c600085815260200190815260200160002060003373ffffffffffffffffffffffffffffffffffffffff1673ffffffffffffffffffffffffffffffffffffffff16815260200190815260200160002060000160009054906101000a900473ffffffffffffffffffffffffffffffffffffffff1673ffffffffffffffffffffffffffffffffffffffff16146113fb576040517fa5e2850c00000000000000000000000000000000000000000000000000000000815260040160405180910390fd5b806002015481600301600082825461141391906143aa565b9250508190555080600501600081548092919061142f9061480b565b919050555080600601339080600181540180825580915050600190039060005260206000200160009091909190916101000a81548173ffffffffffffffffffffffffffffffffffffffff021916908373ffffffffffffffffffffffffffffffffffffffff16021790555060405180606001604052803373ffffffffffffffffffffffffffffffffffffffff1681526020018381526020016000815250600c600085815260200190815260200160002060003373ffffffffffffffffffffffffffffffffffffffff1673ffffffffffffffffffffffffffffffffffffffff16815260200190815260200160002060008201518160000160006101000a81548173ffffffffffffffffffffffffffffffffffffffff021916908373ffffffffffffffffffffffffffffffffffffffff16021790555060208201518160010190600b6115799291906131e5565b50604082015181600c0155905050600d60003373ffffffffffffffffffffffffffffffffffffffff1673ffffffffffffffffffffffffffffffffffffffff1681526020019081526020016000208190806001815401808255809150506001900390600052602060002090600a0201600090919091909150600082015481600001556001820154816001015560028201548160020155600382015481600301556004820160009054906101000a900473ffffffffffffffffffffffffffffffffffffffff168160040160006101000a81548173ffffffffffffffffffffffffffffffffffffffff021916908373ffffffffffffffffffffffffffffffffffffffff16021790555060058201548160050155600682018160060190805461169f929190613156565b5060078201548160070155600882015481600801556009820154816009015550507fc5362c29f1f0e0723bc7a5777b0efb8340a4d4421f539652c7d9965031ecfa5c81600001548260010154836002015484600301548560040160009054906101000a900473ffffffffffffffffffffffffffffffffffffffff16866005015487600601886008015460405161173c989796959493929190614062565b60405180910390a17fea6d66332dedc83de5fce0296cbfe7f77c250be6c3a77739d6988435a6d91959838260010154600c600087815260200190815260200160002060003373ffffffffffffffffffffffffffffffffffffffff1673ffffffffffffffffffffffffffffffffffffffff16815260200190815260200160002060000160009054906101000a900473ffffffffffffffffffffffffffffffffffffffff16600c600088815260200190815260200160002060003373ffffffffffffffffffffffffffffffffffffffff1673ffffffffffffffffffffffffffffffffffffffff168152602001908152602001600020600c0154600c600089815260200190815260200160002060003373ffffffffffffffffffffffffffffffffffffffff1673ffffffffffffffffffffffffffffffffffffffff16815260200190815260200160002060010160405161189795949392919061400e565b60405180910390a180600701544210156118dd576040517f8b5d736400000000000000000000000000000000000000000000000000000000815260040160405180910390fd5b806008015442111561191b576040517fcf1d066100000000000000000000000000000000000000000000000000000000815260040160405180910390fd5b8060090154421115611959576040517f8ed1948200000000000000000000000000000000000000000000000000000000815260040160405180910390fd5b80600201543414611996576040517f2ab758d700000000000000000000000000000000000000000000000000000000815260040160405180910390fd5b505050565b816005600082815260200190815260200160002060009054906101000a900473ffffffffffffffffffffffffffffffffffffffff1673ffffffffffffffffffffffffffffffffffffffff163373ffffffffffffffffffffffffffffffffffffffff1614611a3d576040517f08c379a0000000000000000000000000000000000000000000000000000000008152600401611a3490613fb7565b60405180910390fd5b6005600082815260200190815260200160002060006101000a81549073ffffffffffffffffffffffffffffffffffffffff0219169055807f7cc135e0cebb02c3480ae5d74d377283180a2601f8f644edf7987b009316c63a60405160405180910390a2827fc3bece9eff4a8466fe129f2f8e55aa63a0e1f3df7ed135aa9ee22657b204dc4783604051611ad09190613f15565b60405180910390a2600082600081518110611aee57611aed61493b565b5b602002602001015190506000600190505b60178160ff161015611b7557838160ff1681518110611b2157611b2061493b565b5b6020026020010151600a6000848152602001908152602001600020600183611b499190614630565b60ff1660168110611b5d57611b5c61493b565b5b01819055508080611b6d90614854565b915050611aff565b5050505050565b6060600d60008373ffffffffffffffffffffffffffffffffffffffff1673ffffffffffffffffffffffffffffffffffffffff168152602001908152602001600020805480602002602001604051908101604052809291908181526020016000905b82821015611d4457838290600052602060002090600a020160405180610140016040529081600082015481526020016001820154815260200160028201548152602001600382015481526020016004820160009054906101000a900473ffffffffffffffffffffffffffffffffffffffff1673ffffffffffffffffffffffffffffffffffffffff1673ffffffffffffffffffffffffffffffffffffffff1681526020016005820154815260200160068201805480602002602001604051908101604052809291908181526020018280548015611d0e57602002820191906000526020600020905b8160009054906101000a900473ffffffffffffffffffffffffffffffffffffffff1673ffffffffffffffffffffffffffffffffffffffff1681526020019060010190808311611cc4575b50505050508152602001600782015481526020016008820154815260200160098201548152505081526020019060010190611bdd565b505050509050919050565b611d57611ff3565b611d608161257d565b50565b600b6020528060005260406000206000915090508060000154908060010154908060020154908060030154908060040160009054906101000a900473ffffffffffffffffffffffffffffffffffffffff16908060050154908060070154908060080154908060090154905089565b611dd9611ff3565b60008115611df05763e514227260e01b9050611dfb565b63c6d60eda60e01b90505b6000611e287f343132383731313836623437343939666134393236626364613235323636373430846126ac565b9050611ea56040518060400160405280600381526020017f6765740000000000000000000000000000000000000000000000000000000000815250611e6c866126dd565b611e75886126dd565b604051602001611e86929190613d9f565b6040516020818303038152906040528361283e9092919063ffffffff16565b8215611f2f57611f2a6040518060400160405280600481526020017f70617468000000000000000000000000000000000000000000000000000000008152506040518060400160405280600e81526020017f646174612c706c617965722d69640000000000000000000000000000000000008152508361283e9092919063ffffffff16565b611faf565b611fae6040518060400160405280600481526020017f70617468000000000000000000000000000000000000000000000000000000008152506040518060400160405280600b81526020017f646174612c73636f7265730000000000000000000000000000000000000000008152508361283e9092919063ffffffff16565b5b611fe58160056064670de0b6b3a76400006000611fcc91906145a2565b611fd69190614400565b611fe091906145a2565b612871565b505050505050565b600f5481565b600660009054906101000a900473ffffffffffffffffffffffffffffffffffffffff1673ffffffffffffffffffffffffffffffffffffffff163373ffffffffffffffffffffffffffffffffffffffff1614612083576040517f08c379a000000000000000000000000000000000000000000000000000000000815260040161207a90613f77565b60405180910390fd5b565b61208d611ff3565b6000600b60008381526020019081526020016000209050600080826005015467ffffffffffffffff8111156120c5576120c461496a565b5b6040519080825280602002602001820160405280156120f35781602001602082028036833780820191505090505b5090506000836005015467ffffffffffffffff8111156121165761211561496a565b5b6040519080825280602002602001820160405280156121445781602001602082028036833780820191505090505b5090506000846005015467ffffffffffffffff8111156121675761216661496a565b5b6040519080825280602002602001820160405280156121a057816020015b61218d613225565b8152602001906001900390816121855790505b50905060005b8560050154811015612481576000600c600089815260200190815260200160002060008860060184815481106121df576121de61493b565b5b9060005260206000200160009054906101000a900473ffffffffffffffffffffffffffffffffffffffff1673ffffffffffffffffffffffffffffffffffffffff1673ffffffffffffffffffffffffffffffffffffffff168152602001908152602001600020905061228f81600101600b806020026040519081016040528092919082600b8015612284576020028201915b815481526020019060010190808311612270575b5050505050896128a8565b81600c018190555080600c01548483815181106122af576122ae61493b565b5b6020026020010181815250508060000160009054906101000a900473ffffffffffffffffffffffffffffffffffffffff168583815181106122f3576122f261493b565b5b602002602001019073ffffffffffffffffffffffffffffffffffffffff16908173ffffffffffffffffffffffffffffffffffffffff168152505080600101600b806020026040519081016040528092919082600b8015612368576020028201915b815481526020019060010190808311612354575b50505050508383815181106123805761237f61493b565b5b60200260200101819052508581600c015411156123ff578060000160009054906101000a900473ffffffffffffffffffffffffffffffffffffffff168760040160006101000a81548173ffffffffffffffffffffffffffffffffffffffff021916908373ffffffffffffffffffffffffffffffffffffffff1602179055505b7ff0a4f326a2e0d99c333cd02956eb100b9832a6579fd91cef5ca90aba27653c7a8888600101548360000160009054906101000a900473ffffffffffffffffffffffffffffffffffffffff1684600c01548560010160405161246595949392919061400e565b60405180910390a15080806124799061480b565b9150506121a6565b508460040160009054906101000a900473ffffffffffffffffffffffffffffffffffffffff1673ffffffffffffffffffffffffffffffffffffffff166108fc86600301549081150290604051600060405180830381858888f193505050501580156124f0573d6000803e3d6000fd5b507fc5362c29f1f0e0723bc7a5777b0efb8340a4d4421f539652c7d9965031ecfa5c85600001548660010154876002015488600301548960040160009054906101000a900473ffffffffffffffffffffffffffffffffffffffff168a600501548b6006018c6008015460405161256d989796959493929190614062565b60405180910390a1505050505050565b3373ffffffffffffffffffffffffffffffffffffffff168173ffffffffffffffffffffffffffffffffffffffff1614156125ec576040517f08c379a00000000000000000000000000000000000000000000000000000000081526004016125e390613f97565b60405180910390fd5b80600760006101000a81548173ffffffffffffffffffffffffffffffffffffffff021916908373ffffffffffffffffffffffffffffffffffffffff1602179055508073ffffffffffffffffffffffffffffffffffffffff16600660009054906101000a900473ffffffffffffffffffffffffffffffffffffffff1673ffffffffffffffffffffffffffffffffffffffff167fed8889f560326eb138920d842192f0eb3dd22b4f139c87a2c57538e05bae127860405160405180910390a350565b6126b4613248565b6126bc613248565b6126d385858584612922909392919063ffffffff16565b9150509392505050565b60606000821415612725576040518060400160405280600181526020017f30000000000000000000000000000000000000000000000000000000000000008152509050612839565b600082905060005b600082146127575780806127409061480b565b915050600a826127509190614400565b915061272d565b60008167ffffffffffffffff8111156127735761277261496a565b5b6040519080825280601f01601f1916602001820160405280156127a55781602001600182028036833780820191505090505b5090505b60008514612832576001826127be91906145fc565b9150600a856127cd91906148ac565b60306127d991906143aa565b60f81b8183815181106127ef576127ee61493b565b5b60200101907effffffffffffffffffffffffffffffffffffffffffffffffffffffffffffff1916908160001a905350600a8561282b9190614400565b94506127a9565b8093505050505b919050565b6128558284608001516129d290919063ffffffff16565b61286c8184608001516129d290919063ffffffff16565b505050565b60006128a0600360009054906101000a900473ffffffffffffffffffffffffffffffffffffffff1684846129f7565b905092915050565b6000806000905060005b600b811015612917576008600085815260200190815260200160002060008683600b81106128e3576128e261493b565b5b60200201518152602001908152602001600020548261290291906143aa565b9150808061290f9061480b565b9150506128b2565b508091505092915050565b61292a613248565b61293a8560800151610100612ac1565b508385600001818152505082856020019073ffffffffffffffffffffffffffffffffffffffff16908173ffffffffffffffffffffffffffffffffffffffff16815250508185604001907bffffffffffffffffffffffffffffffffffffffffffffffffffffffff191690817bffffffffffffffffffffffffffffffffffffffffffffffffffffffff191681525050849050949350505050565b6129df8260038351612b2b565b6129f28183612cb090919063ffffffff16565b505050565b6000806004549050600181612a0c91906143aa565b6004819055506000633c6d41b960e01b600080876000015188604001518660028b6080015160000151604051602401612a4b9796959493929190613e1d565b604051602081830303815290604052907bffffffffffffffffffffffffffffffffffffffffffffffffffffffff19166020820180517bffffffffffffffffffffffffffffffffffffffffffffffffffffffff83818316178352505050509050612ab686838684612cd2565b925050509392505050565b612ac96132b5565b6000602083612ad891906148ac565b14612b0457602082612aea91906148ac565b6020612af691906145fc565b82612b0191906143aa565b91505b81836020018181525050604051808452600081528281016020016040525082905092915050565b60178167ffffffffffffffff1611612b6257612b5c8160058460ff16901b60ff161784612e7690919063ffffffff16565b50612cab565b60ff8167ffffffffffffffff1611612bb857612b91601860058460ff16901b1784612e7690919063ffffffff16565b50612bb28167ffffffffffffffff16600185612e969092919063ffffffff16565b50612caa565b61ffff8167ffffffffffffffff1611612c0f57612be8601960058460ff16901b1784612e7690919063ffffffff16565b50612c098167ffffffffffffffff16600285612e969092919063ffffffff16565b50612ca9565b63ffffffff8167ffffffffffffffff1611612c6857612c41601a60058460ff16901b1784612e7690919063ffffffff16565b50612c628167ffffffffffffffff16600485612e969092919063ffffffff16565b50612ca8565b612c85601b60058460ff16901b1784612e7690919063ffffffff16565b50612ca68167ffffffffffffffff16600885612e969092919063ffffffff16565b505b5b5b5b505050565b612cb86132b5565b612cca83846000015151848551612eb8565b905092915050565b60003084604051602001612ce7929190613d73565b604051602081830303815290604052805190602001209050846005600083815260200190815260200160002060006101000a81548173ffffffffffffffffffffffffffffffffffffffff021916908373ffffffffffffffffffffffffffffffffffffffff160217905550807fb5e6e01e79f91267dc17b4e6314d5d4d03593d2ceee0fbb452b750bd70ea5af960405160405180910390a2600260009054906101000a900473ffffffffffffffffffffffffffffffffffffffff1673ffffffffffffffffffffffffffffffffffffffff16634000aea08685856040518463ffffffff1660e01b8152600401612ddd93929190613e93565b602060405180830381600087803b158015612df757600080fd5b505af1158015612e0b573d6000803e3d6000fd5b505050506040513d601f19601f82011682018060405250810190612e2f91906134f2565b612e6e576040517f08c379a0000000000000000000000000000000000000000000000000000000008152600401612e6590613f57565b60405180910390fd5b949350505050565b612e7e6132b5565b612e8e8384600001515184612fa7565b905092915050565b612e9e6132b5565b612eaf848560000151518585612ffe565b90509392505050565b612ec06132b5565b8251821115612ece57600080fd5b84602001518285612edf91906143aa565b1115612f1457612f13856002612f0488602001518887612eff91906143aa565b61308c565b612f0e91906145a2565b6130a8565b5b600080865180518760208301019350808887011115612f335787860182525b60208701925050505b60208410612f7a5780518252602082612f5591906143aa565b9150602081612f6491906143aa565b9050602084612f7391906145fc565b9350612f3c565b60006001856020036101000a03905080198251168184511681811785525050508692505050949350505050565b612faf6132b5565b83602001518310612fd557612fd48460028660200151612fcf91906145a2565b6130a8565b5b8351805160208583010184815381861415612ff1576001820183525b5050508390509392505050565b6130066132b5565b8460200151848361301791906143aa565b111561303f5761303e856002868561302f91906143aa565b61303991906145a2565b6130a8565b5b60006001836101006130519190614484565b61305b91906145fc565b9050855183868201018583198251161781528151858801111561307e5784870182525b505085915050949350505050565b60008183111561309e578290506130a2565b8190505b92915050565b6000826000015190506130bb8383612ac1565b506130c68382612cb0565b50505050565b828054828255906000526020600020908101928215613145579160200282015b828111156131445782518260006101000a81548173ffffffffffffffffffffffffffffffffffffffff021916908373ffffffffffffffffffffffffffffffffffffffff160217905550916020019190600101906130ec565b5b50905061315291906132cf565b5090565b8280548282559060005260206000209081019282156131975760005260206000209182015b8281111561319657825482559160010191906001019061317b565b5b5090506131a491906132cf565b5090565b6040518060600160405280600073ffffffffffffffffffffffffffffffffffffffff1681526020016131d8613225565b8152602001600081525090565b82600b8101928215613214579160200282015b828111156132135782518255916020019190600101906131f8565b5b50905061322191906132cf565b5090565b604051806101600160405280600b90602082028036833780820191505090505090565b6040518060a0016040528060008019168152602001600073ffffffffffffffffffffffffffffffffffffffff16815260200160007bffffffffffffffffffffffffffffffffffffffffffffffffffffffff19168152602001600081526020016132af6132b5565b81525090565b604051806040016040528060608152602001600081525090565b5b808211156132e85760008160009055506001016132d0565b5090565b60006132ff6132fa84614199565b614174565b90508082856020860282011115613319576133186149c4565b5b60005b85811015613349578161332f8882613470565b84526020840193506020830192505060018101905061331c565b5050509392505050565b6000613366613361846141bf565b614174565b90508083825260208201905082856020860282011115613389576133886149c4565b5b60005b858110156133b9578161339f8882613470565b84526020840193506020830192505060018101905061338c565b5050509392505050565b6000813590506133d281614bc2565b92915050565b600082601f8301126133ed576133ec6149bf565b5b600b6133fa8482856132ec565b91505092915050565b600082601f830112613418576134176149bf565b5b8135613428848260208601613353565b91505092915050565b60008135905061344081614bd9565b92915050565b60008151905061345581614bd9565b92915050565b60008135905061346a81614bf0565b92915050565b60008135905061347f81614c07565b92915050565b60006020828403121561349b5761349a6149ce565b5b60006134a9848285016133c3565b91505092915050565b600080604083850312156134c9576134c86149ce565b5b60006134d7858286016133c3565b92505060206134e885828601613470565b9150509250929050565b600060208284031215613508576135076149ce565b5b600061351684828501613446565b91505092915050565b60008060408385031215613536576135356149ce565b5b60006135448582860161345b565b925050602083013567ffffffffffffffff811115613565576135646149c9565b5b61357185828601613403565b9150509250929050565b600060208284031215613591576135906149ce565b5b600061359f84828501613470565b91505092915050565b600080604083850312156135bf576135be6149ce565b5b60006135cd85828601613470565b92505060206135de858286016133c3565b9150509250929050565b6000806101808385031215613600576135ff6149ce565b5b600061360e85828601613470565b925050602061361f858286016133d8565b9150509250929050565b600080600060608486031215613642576136416149ce565b5b600061365086828701613470565b935050602061366186828701613470565b925050604061367286828701613431565b9150509250925092565b600080600080600060a08688031215613698576136976149ce565b5b60006136a688828901613470565b95505060206136b788828901613470565b94505060406136c888828901613470565b93505060606136d988828901613470565b92505060806136ea88828901613470565b9150509295509295909350565b60006137038383613781565b60208301905092915050565b600061371b8383613bdc565b905092915050565b600061372f8383613cb6565b6101a08301905092915050565b60006137488383613d3e565b60208301905092915050565b61375d8161472b565b82525050565b61376c816146a0565b82525050565b61377b816146a0565b82525050565b61378a8161468e565b82525050565b6137998161468e565b82525050565b60006137aa82614254565b6137b48185614312565b93506137bf836141eb565b8060005b838110156137f05781516137d788826136f7565b97506137e2836142b7565b9250506001810190506137c3565b5085935050505092915050565b60006138088261425f565b6138128185614323565b935061381d836141fb565b8060005b838110156138555761383282614999565b61383c88826136f7565b9750613847836142c4565b925050600181019050613821565b5085935050505092915050565b600061386d8261426a565b6138778185614334565b93508360208202850161388985614210565b8060005b858110156138c557848403895281516138a6858261370f565b94506138b1836142d1565b925060208a0199505060018101905061388d565b50829750879550505050505092915050565b60006138e282614275565b6138ec8185614345565b93506138f783614220565b8060005b8381101561392857815161390f8882613723565b975061391a836142de565b9250506001810190506138fb565b5085935050505092915050565b61393e81614280565b6139488184614356565b925061395382614230565b8060005b8381101561398457815161396b878261373c565b9650613976836142eb565b925050600181019050613957565b505050505050565b6139958161428b565b61399f8184614361565b92506139aa8261423a565b8060005b838110156139e2576139bf826149ac565b6139c9878261373c565b96506139d4836142f8565b9250506001810190506139ae565b505050505050565b60006139f582614296565b6139ff818561436c565b9350613a0a83614244565b8060005b83811015613a3b578151613a22888261373c565b9750613a2d83614305565b925050600181019050613a0e565b5085935050505092915050565b613a51816146be565b82525050565b613a60816146c8565b82525050565b6000613a71826142a1565b613a7b818561437d565b9350613a8b818560208601614773565b613a94816149d3565b840191505092915050565b613ab0613aab8261473d565b61487e565b82525050565b6000613ac1826142ac565b613acb818561439f565b9350613adb818560208601614773565b80840191505092915050565b6000613af460168361438e565b9150613aff82614a0b565b602082019050919050565b6000613b1760238361438e565b9150613b2282614a34565b604082019050919050565b6000613b3a60168361438e565b9150613b4582614a83565b602082019050919050565b6000613b5d600b8361439f565b9150613b6882614aac565b600b82019050919050565b6000613b8060178361438e565b9150613b8b82614ad5565b602082019050919050565b6000613ba360288361438e565b9150613bae82614afe565b604082019050919050565b6000613bc660418361439f565b9150613bd182614b4d565b604182019050919050565b600061014083016000830151613bf56000860182613d3e565b506020830151613c086020860182613d3e565b506040830151613c1b6040860182613d3e565b506060830151613c2e6060860182613d3e565b506080830151613c416080860182613763565b5060a0830151613c5460a0860182613d3e565b5060c083015184820360c0860152613c6c828261379f565b91505060e0830151613c8160e0860182613d3e565b50610100830151613c96610100860182613d3e565b50610120830151613cab610120860182613d3e565b508091505092915050565b6101a082016000820151613ccd6000850182613781565b506020820151613ce06020850182613935565b506040820151613cf4610180850182613d3e565b50505050565b6101a082016000820151613d116000850182613781565b506020820151613d246020850182613935565b506040820151613d38610180850182613d3e565b50505050565b613d4781614714565b82525050565b613d5681614714565b82525050565b613d6d613d6882614714565b6148a2565b82525050565b6000613d7f8285613a9f565b601482019150613d8f8284613d5c565b6020820191508190509392505050565b6000613daa82613bb9565b9150613db68285613ab6565b9150613dc182613b50565b9150613dcd8284613ab6565b91508190509392505050565b6000602082019050613dee6000830184613790565b92915050565b6000604082019050613e096000830185613790565b613e166020830184613d4d565b9392505050565b600060e082019050613e32600083018a613790565b613e3f6020830189613d4d565b613e4c6040830188613a48565b613e596060830187613a57565b613e666080830186613d4d565b613e7360a0830185613d4d565b81810360c0830152613e858184613a66565b905098975050505050505050565b6000606082019050613ea86000830186613790565b613eb56020830185613d4d565b8181036040830152613ec78184613a66565b9050949350505050565b60006020820190508181036000830152613eeb8184613862565b905092915050565b60006020820190508181036000830152613f0d81846138d7565b905092915050565b60006020820190508181036000830152613f2f81846139ea565b905092915050565b60006020820190508181036000830152613f5081613ae7565b9050919050565b60006020820190508181036000830152613f7081613b0a565b9050919050565b60006020820190508181036000830152613f9081613b2d565b9050919050565b60006020820190508181036000830152613fb081613b73565b9050919050565b60006020820190508181036000830152613fd081613b96565b9050919050565b60006101a082019050613fed6000830184613cfa565b92915050565b60006020820190506140086000830184613d4d565b92915050565b60006101e0820190506140246000830188613d4d565b6140316020830187613d4d565b61403e6040830186613790565b61404b6060830185613d4d565b614058608083018461398c565b9695505050505050565b600061010082019050614078600083018b613d4d565b614085602083018a613d4d565b6140926040830189613d4d565b61409f6060830188613d4d565b6140ac6080830187613754565b6140b960a0830186613d4d565b81810360c08301526140cb81856137fd565b90506140da60e0830184613d4d565b9998505050505050505050565b6000610120820190506140fd600083018c613d4d565b61410a602083018b613d4d565b614117604083018a613d4d565b6141246060830189613d4d565b6141316080830188613772565b61413e60a0830187613d4d565b61414b60c0830186613d4d565b61415860e0830185613d4d565b614166610100830184613d4d565b9a9950505050505050505050565b600061417e61418f565b905061418a82826147da565b919050565b6000604051905090565b600067ffffffffffffffff8211156141b4576141b361496a565b5b602082029050919050565b600067ffffffffffffffff8211156141da576141d961496a565b5b602082029050602081019050919050565b6000819050602082019050919050565b60008190508160005260206000209050919050565b6000819050602082019050919050565b6000819050602082019050919050565b6000819050919050565b6000819050919050565b6000819050602082019050919050565b600081519050919050565b600081549050919050565b600081519050919050565b600081519050919050565b6000600b9050919050565b6000600b9050919050565b600081519050919050565b600081519050919050565b600081519050919050565b6000602082019050919050565b6000600182019050919050565b6000602082019050919050565b6000602082019050919050565b6000602082019050919050565b6000600182019050919050565b6000602082019050919050565b600082825260208201905092915050565b600082825260208201905092915050565b600082825260208201905092915050565b600082825260208201905092915050565b600081905092915050565b600081905092915050565b600082825260208201905092915050565b600082825260208201905092915050565b600082825260208201905092915050565b600081905092915050565b60006143b582614714565b91506143c083614714565b9250827fffffffffffffffffffffffffffffffffffffffffffffffffffffffffffffffff038211156143f5576143f46148dd565b5b828201905092915050565b600061440b82614714565b915061441683614714565b9250826144265761442561490c565b5b828204905092915050565b6000808291508390505b600185111561447b57808604811115614457576144566148dd565b5b60018516156144665780820291505b8081029050614474856149fe565b945061443b565b94509492505050565b600061448f82614714565b915061449a83614714565b92506144c77fffffffffffffffffffffffffffffffffffffffffffffffffffffffffffffffff84846144cf565b905092915050565b6000826144df576001905061459b565b816144ed576000905061459b565b8160018114614503576002811461450d5761453c565b600191505061459b565b60ff84111561451f5761451e6148dd565b5b8360020a915084821115614536576145356148dd565b5b5061459b565b5060208310610133831016604e8410600b84101617156145715782820a90508381111561456c5761456b6148dd565b5b61459b565b61457e8484846001614431565b92509050818404811115614595576145946148dd565b5b81810290505b9392505050565b60006145ad82614714565b91506145b883614714565b9250817fffffffffffffffffffffffffffffffffffffffffffffffffffffffffffffffff04831182151516156145f1576145f06148dd565b5b828202905092915050565b600061460782614714565b915061461283614714565b925082821015614625576146246148dd565b5b828203905092915050565b600061463b8261471e565b91506146468361471e565b925082821015614659576146586148dd565b5b828203905092915050565b600073ffffffffffffffffffffffffffffffffffffffff82169050919050565b6000819050919050565b6000614699826146f4565b9050919050565b60006146ab826146f4565b9050919050565b60008115159050919050565b6000819050919050565b60007fffffffff0000000000000000000000000000000000000000000000000000000082169050919050565b600073ffffffffffffffffffffffffffffffffffffffff82169050919050565b6000819050919050565b600060ff82169050919050565b60006147368261474f565b9050919050565b60006147488261474f565b9050919050565b600061475a82614761565b9050919050565b600061476c826146f4565b9050919050565b60005b83811015614791578082015181840152602081019050614776565b838111156147a0576000848401525b50505050565b60006147b96147b4836149f1565b614664565b9050919050565b60006147d36147ce836149f1565b614684565b9050919050565b6147e3826149d3565b810181811067ffffffffffffffff821117156148025761480161496a565b5b80604052505050565b600061481682614714565b91507fffffffffffffffffffffffffffffffffffffffffffffffffffffffffffffffff821415614849576148486148dd565b5b600182019050919050565b600061485f8261471e565b915060ff821415614873576148726148dd565b5b600182019050919050565b600061488982614890565b9050919050565b600061489b826149e4565b9050919050565b6000819050919050565b60006148b782614714565b91506148c283614714565b9250826148d2576148d161490c565b5b828206905092915050565b7f4e487b7100000000000000000000000000000000000000000000000000000000600052601160045260246000fd5b7f4e487b7100000000000000000000000000000000000000000000000000000000600052601260045260246000fd5b7f4e487b7100000000000000000000000000000000000000000000000000000000600052603260045260246000fd5b7f4e487b7100000000000000000000000000000000000000000000000000000000600052604160045260246000fd5b60006149a582546147a6565b9050919050565b60006149b882546147c0565b9050919050565b600080fd5b600080fd5b600080fd5b600080fd5b6000601f19601f8301169050919050565b60008160601b9050919050565b60008160001c9050919050565b60008160011c9050919050565b7f4d7573742062652070726f706f736564206f776e657200000000000000000000600082015250565b7f756e61626c6520746f207472616e73666572416e6443616c6c20746f206f726160008201527f636c650000000000000000000000000000000000000000000000000000000000602082015250565b7f4f6e6c792063616c6c61626c65206279206f776e657200000000000000000000600082015250565b7f26636f6e7465737449643d000000000000000000000000000000000000000000600082015250565b7f43616e6e6f74207472616e7366657220746f2073656c66000000000000000000600082015250565b7f536f75726365206d75737420626520746865206f7261636c65206f662074686560008201527f2072657175657374000000000000000000000000000000000000000000000000602082015250565b7f68747470733a2f2f63727970746f2d66616e746173792d646170702e7665726360008201527f656c2e6170702f6170692f66616e74617379506f696e74733f6d61746368496460208201527f3d00000000000000000000000000000000000000000000000000000000000000604082015250565b614bcb8161468e565b8114614bd657600080fd5b50565b614be2816146b2565b8114614bed57600080fd5b50565b614bf9816146be565b8114614c0457600080fd5b50565b614c1081614714565b8114614c1b57600080fd5b5056fea26469706673582212203ceafe52bf1e750d23d87647f14058bb03e74ea11226e475701c14c7265dc1dd64736f6c63430008070033",
  "linkReferences": {},
  "deployedLinkReferences": {}
}