{
  "_format": "hh-sol-artifact-1",
  "contractName": "CryptoFantasy",
  "sourceName": "contracts/cryptoFantasy.sol",
  "abi": [
    {
      "inputs": [],
      "stateMutability": "nonpayable",
      "type": "constructor"
    },
    {
      "inputs": [],
      "name": "CryptoFantasy__AlreadyJoinedThisContest",
      "type": "error"
    },
    {
      "inputs": [],
      "name": "CryptoFantasy__CheckTimingsOfContest",
      "type": "error"
    },
    {
      "inputs": [],
      "name": "CryptoFantasy__ContestEnded",
      "type": "error"
    },
    {
      "inputs": [],
      "name": "CryptoFantasy__ContestNotStartedYet",
      "type": "error"
    },
    {
      "inputs": [],
      "name": "CryptoFantasy__JoiningDeadlinePassed",
      "type": "error"
    },
    {
      "inputs": [],
      "name": "CryptoFantasy__ValueNotEqualToEntryFee",
      "type": "error"
    },
    {
      "anonymous": false,
      "inputs": [
        {
          "indexed": true,
          "internalType": "bytes32",
          "name": "id",
          "type": "bytes32"
        }
      ],
      "name": "ChainlinkCancelled",
      "type": "event"
    },
    {
      "anonymous": false,
      "inputs": [
        {
          "indexed": true,
          "internalType": "bytes32",
          "name": "id",
          "type": "bytes32"
        }
      ],
      "name": "ChainlinkFulfilled",
      "type": "event"
    },
    {
      "anonymous": false,
      "inputs": [
        {
          "indexed": true,
          "internalType": "bytes32",
          "name": "id",
          "type": "bytes32"
        }
      ],
      "name": "ChainlinkRequested",
      "type": "event"
    },
    {
      "anonymous": false,
      "inputs": [
        {
          "indexed": false,
          "internalType": "uint256",
          "name": "contestId",
          "type": "uint256"
        },
        {
          "indexed": false,
          "internalType": "uint256",
          "name": "apiMatchId",
          "type": "uint256"
        },
        {
          "indexed": false,
          "internalType": "uint256",
          "name": "entryFee",
          "type": "uint256"
        },
        {
          "indexed": false,
          "internalType": "uint256",
          "name": "poolPrize",
          "type": "uint256"
        },
        {
          "indexed": false,
          "internalType": "address",
          "name": "winner",
          "type": "address"
        },
        {
          "indexed": false,
          "internalType": "uint256",
          "name": "totalTeams",
          "type": "uint256"
        },
        {
          "indexed": false,
          "internalType": "address[]",
          "name": "teamOwners",
          "type": "address[]"
        },
        {
          "indexed": false,
          "internalType": "uint256",
          "name": "endDateTime",
          "type": "uint256"
        }
      ],
      "name": "ContestCreated",
      "type": "event"
    },
    {
      "anonymous": false,
      "inputs": [
        {
          "indexed": false,
          "internalType": "uint256",
          "name": "contestId",
          "type": "uint256"
        },
        {
          "indexed": false,
          "internalType": "uint256",
          "name": "apiMatchId",
          "type": "uint256"
        },
        {
          "indexed": false,
          "internalType": "uint256",
          "name": "entryFee",
          "type": "uint256"
        },
        {
          "indexed": false,
          "internalType": "uint256",
          "name": "poolPrize",
          "type": "uint256"
        },
        {
          "indexed": false,
          "internalType": "address",
          "name": "winner",
          "type": "address"
        },
        {
          "indexed": false,
          "internalType": "uint256",
          "name": "totalTeams",
          "type": "uint256"
        },
        {
          "indexed": false,
          "internalType": "address[]",
          "name": "teamOwners",
          "type": "address[]"
        },
        {
          "indexed": false,
          "internalType": "uint256",
          "name": "endDateTime",
          "type": "uint256"
        }
      ],
      "name": "ContestUpdated",
      "type": "event"
    },
    {
      "anonymous": false,
      "inputs": [
        {
          "indexed": true,
          "internalType": "address",
          "name": "from",
          "type": "address"
        },
        {
          "indexed": true,
          "internalType": "address",
          "name": "to",
          "type": "address"
        }
      ],
      "name": "OwnershipTransferRequested",
      "type": "event"
    },
    {
      "anonymous": false,
      "inputs": [
        {
          "indexed": true,
          "internalType": "address",
          "name": "from",
          "type": "address"
        },
        {
          "indexed": true,
          "internalType": "address",
          "name": "to",
          "type": "address"
        }
      ],
      "name": "OwnershipTransferred",
      "type": "event"
    },
    {
      "anonymous": false,
      "inputs": [
        {
          "indexed": true,
          "internalType": "bytes32",
          "name": "requestId",
          "type": "bytes32"
        },
        {
          "indexed": false,
          "internalType": "uint256[]",
          "name": "data",
          "type": "uint256[]"
        }
      ],
      "name": "RequestFulfilledEvent",
      "type": "event"
    },
    {
      "anonymous": false,
      "inputs": [
        {
          "indexed": false,
          "internalType": "uint256",
          "name": "contestId",
          "type": "uint256"
        },
        {
          "indexed": false,
          "internalType": "uint256",
          "name": "apiMatchId",
          "type": "uint256"
        },
        {
          "indexed": false,
          "internalType": "address",
          "name": "teamOwner",
          "type": "address"
        },
        {
          "indexed": false,
          "internalType": "uint256",
          "name": "teamScores",
          "type": "uint256"
        },
        {
          "indexed": false,
          "internalType": "uint256[11]",
          "name": "players",
          "type": "uint256[11]"
        }
      ],
      "name": "TeamJoined",
      "type": "event"
    },
    {
      "anonymous": false,
      "inputs": [
        {
          "indexed": false,
          "internalType": "uint256",
          "name": "contestId",
          "type": "uint256"
        },
        {
          "indexed": false,
          "internalType": "uint256",
          "name": "apiMatchId",
          "type": "uint256"
        },
        {
          "indexed": false,
          "internalType": "address",
          "name": "teamOwners",
          "type": "address"
        },
        {
          "indexed": false,
          "internalType": "uint256",
          "name": "teamScores",
          "type": "uint256"
        },
        {
          "indexed": false,
          "internalType": "uint256[11]",
          "name": "players",
          "type": "uint256[11]"
        }
      ],
      "name": "TeamUpdated",
      "type": "event"
    },
    {
      "inputs": [],
      "name": "acceptOwnership",
      "outputs": [],
      "stateMutability": "nonpayable",
      "type": "function"
    },
    {
      "inputs": [
        {
          "internalType": "uint256",
          "name": "contestId",
          "type": "uint256"
        }
      ],
      "name": "calculatePointsAllTeams",
      "outputs": [],
      "stateMutability": "nonpayable",
      "type": "function"
    },
    {
      "inputs": [
        {
          "internalType": "uint256[11]",
          "name": "playerIds",
          "type": "uint256[11]"
        },
        {
          "internalType": "uint256",
          "name": "contestId",
          "type": "uint256"
        }
      ],
      "name": "calculateScoreOfTeam",
      "outputs": [
        {
          "internalType": "uint256",
          "name": "",
          "type": "uint256"
        }
      ],
      "stateMutability": "view",
      "type": "function"
    },
    {
      "inputs": [
        {
          "internalType": "uint256",
          "name": "",
          "type": "uint256"
        }
      ],
      "name": "contestByMatchId",
      "outputs": [
        {
          "internalType": "uint256",
          "name": "contestId",
          "type": "uint256"
        },
        {
          "internalType": "uint256",
          "name": "apiMatchId",
          "type": "uint256"
        },
        {
          "internalType": "uint256",
          "name": "entryFee",
          "type": "uint256"
        },
        {
          "internalType": "uint256",
          "name": "poolPrize",
          "type": "uint256"
        },
        {
          "internalType": "address payable",
          "name": "winner",
          "type": "address"
        },
        {
          "internalType": "uint256",
          "name": "totalTeams",
          "type": "uint256"
        },
        {
          "internalType": "uint256",
          "name": "startDateTime",
          "type": "uint256"
        },
        {
          "internalType": "uint256",
          "name": "endDateTime",
          "type": "uint256"
        },
        {
          "internalType": "uint256",
          "name": "joinDeadline",
          "type": "uint256"
        }
      ],
      "stateMutability": "view",
      "type": "function"
    },
    {
      "inputs": [
        {
          "internalType": "address",
          "name": "",
          "type": "address"
        },
        {
          "internalType": "uint256",
          "name": "",
          "type": "uint256"
        }
      ],
      "name": "contestPlayedByUser",
      "outputs": [
        {
          "internalType": "uint256",
          "name": "contestId",
          "type": "uint256"
        },
        {
          "internalType": "uint256",
          "name": "apiMatchId",
          "type": "uint256"
        },
        {
          "internalType": "uint256",
          "name": "entryFee",
          "type": "uint256"
        },
        {
          "internalType": "uint256",
          "name": "poolPrize",
          "type": "uint256"
        },
        {
          "internalType": "address payable",
          "name": "winner",
          "type": "address"
        },
        {
          "internalType": "uint256",
          "name": "totalTeams",
          "type": "uint256"
        },
        {
          "internalType": "uint256",
          "name": "startDateTime",
          "type": "uint256"
        },
        {
          "internalType": "uint256",
          "name": "endDateTime",
          "type": "uint256"
        },
        {
          "internalType": "uint256",
          "name": "joinDeadline",
          "type": "uint256"
        }
      ],
      "stateMutability": "view",
      "type": "function"
    },
    {
      "inputs": [
        {
          "internalType": "uint256",
          "name": "matchId",
          "type": "uint256"
        },
        {
          "internalType": "uint256",
          "name": "fee",
          "type": "uint256"
        },
        {
          "internalType": "uint256",
          "name": "startDateTime",
          "type": "uint256"
        },
        {
          "internalType": "uint256",
          "name": "endDateTime",
          "type": "uint256"
        },
        {
          "internalType": "uint256",
          "name": "joinDeadline",
          "type": "uint256"
        }
      ],
      "name": "createContest",
      "outputs": [],
      "stateMutability": "nonpayable",
      "type": "function"
    },
    {
      "inputs": [
        {
          "internalType": "bytes32",
          "name": "requestId",
          "type": "bytes32"
        },
        {
          "internalType": "uint256[]",
          "name": "data",
          "type": "uint256[]"
        }
      ],
      "name": "fulfillPlayerData",
      "outputs": [],
      "stateMutability": "nonpayable",
      "type": "function"
    },
    {
      "inputs": [
        {
          "internalType": "bytes32",
          "name": "requestId",
          "type": "bytes32"
        },
        {
          "internalType": "uint256[]",
          "name": "data",
          "type": "uint256[]"
        }
      ],
      "name": "fulfillScoreData",
      "outputs": [],
      "stateMutability": "nonpayable",
      "type": "function"
    },
    {
      "inputs": [
        {
          "internalType": "uint256",
          "name": "contestId",
          "type": "uint256"
        }
      ],
      "name": "getContestData",
      "outputs": [],
      "stateMutability": "nonpayable",
      "type": "function"
    },
    {
      "inputs": [
        {
          "internalType": "address",
          "name": "user",
          "type": "address"
        }
      ],
      "name": "getContestPlayedByUser",
      "outputs": [
        {
          "components": [
            {
              "internalType": "uint256",
              "name": "contestId",
              "type": "uint256"
            },
            {
              "internalType": "uint256",
              "name": "apiMatchId",
              "type": "uint256"
            },
            {
              "internalType": "uint256",
              "name": "entryFee",
              "type": "uint256"
            },
            {
              "internalType": "uint256",
              "name": "poolPrize",
              "type": "uint256"
            },
            {
              "internalType": "address payable",
              "name": "winner",
              "type": "address"
            },
            {
              "internalType": "uint256",
              "name": "totalTeams",
              "type": "uint256"
            },
            {
              "internalType": "address[]",
              "name": "teamOwners",
              "type": "address[]"
            },
            {
              "internalType": "uint256",
              "name": "startDateTime",
              "type": "uint256"
            },
            {
              "internalType": "uint256",
              "name": "endDateTime",
              "type": "uint256"
            },
            {
              "internalType": "uint256",
              "name": "joinDeadline",
              "type": "uint256"
            }
          ],
          "internalType": "struct CryptoFantasy.Contest[]",
          "name": "",
          "type": "tuple[]"
        }
      ],
      "stateMutability": "view",
      "type": "function"
    },
    {
      "inputs": [
        {
          "internalType": "uint256",
          "name": "contestId",
          "type": "uint256"
        },
        {
          "internalType": "address",
          "name": "user",
          "type": "address"
        }
      ],
      "name": "getContestTeamOfUser",
      "outputs": [
        {
          "components": [
            {
              "internalType": "address",
              "name": "teamOwner",
              "type": "address"
            },
            {
              "internalType": "uint256[11]",
              "name": "playerIds",
              "type": "uint256[11]"
            },
            {
              "internalType": "uint256",
              "name": "score",
              "type": "uint256"
            }
          ],
          "internalType": "struct CryptoFantasy.Team",
          "name": "",
          "type": "tuple"
        }
      ],
      "stateMutability": "view",
      "type": "function"
    },
    {
      "inputs": [
        {
          "internalType": "uint256",
          "name": "contestId",
          "type": "uint256"
        }
      ],
      "name": "getContestTeams",
      "outputs": [
        {
          "components": [
            {
              "internalType": "address",
              "name": "teamOwner",
              "type": "address"
            },
            {
              "internalType": "uint256[11]",
              "name": "playerIds",
              "type": "uint256[11]"
            },
            {
              "internalType": "uint256",
              "name": "score",
              "type": "uint256"
            }
          ],
          "internalType": "struct CryptoFantasy.Team[]",
          "name": "",
          "type": "tuple[]"
        }
      ],
      "stateMutability": "view",
      "type": "function"
    },
    {
      "inputs": [
        {
          "internalType": "uint256",
          "name": "contestId",
          "type": "uint256"
        },
        {
          "internalType": "uint256[11]",
          "name": "playerIds",
          "type": "uint256[11]"
        }
      ],
      "name": "joinMatch",
      "outputs": [],
      "stateMutability": "payable",
      "type": "function"
    },
    {
      "inputs": [],
      "name": "numberOfContests",
      "outputs": [
        {
          "internalType": "uint256",
          "name": "",
          "type": "uint256"
        }
      ],
      "stateMutability": "view",
      "type": "function"
    },
    {
      "inputs": [],
      "name": "owner",
      "outputs": [
        {
          "internalType": "address",
          "name": "",
          "type": "address"
        }
      ],
      "stateMutability": "view",
      "type": "function"
    },
    {
      "inputs": [
        {
          "internalType": "uint256",
          "name": "contestId",
          "type": "uint256"
        },
        {
          "internalType": "uint256",
          "name": "matchId",
          "type": "uint256"
        },
        {
          "internalType": "bool",
          "name": "dataType",
          "type": "bool"
        }
      ],
      "name": "requestContestData",
      "outputs": [],
      "stateMutability": "nonpayable",
      "type": "function"
    },
    {
      "inputs": [
        {
          "internalType": "uint256",
          "name": "",
          "type": "uint256"
        },
        {
          "internalType": "address",
          "name": "",
          "type": "address"
        }
      ],
      "name": "teamsOfContest",
      "outputs": [
        {
          "internalType": "address",
          "name": "teamOwner",
          "type": "address"
        },
        {
          "internalType": "uint256",
          "name": "score",
          "type": "uint256"
        }
      ],
      "stateMutability": "view",
      "type": "function"
    },
    {
      "inputs": [
        {
          "internalType": "uint256",
          "name": "",
          "type": "uint256"
        }
      ],
      "name": "totalContest",
      "outputs": [
        {
          "internalType": "uint256",
          "name": "contestId",
          "type": "uint256"
        },
        {
          "internalType": "uint256",
          "name": "apiMatchId",
          "type": "uint256"
        },
        {
          "internalType": "uint256",
          "name": "entryFee",
          "type": "uint256"
        },
        {
          "internalType": "uint256",
          "name": "poolPrize",
          "type": "uint256"
        },
        {
          "internalType": "address payable",
          "name": "winner",
          "type": "address"
        },
        {
          "internalType": "uint256",
          "name": "totalTeams",
          "type": "uint256"
        },
        {
          "internalType": "uint256",
          "name": "startDateTime",
          "type": "uint256"
        },
        {
          "internalType": "uint256",
          "name": "endDateTime",
          "type": "uint256"
        },
        {
          "internalType": "uint256",
          "name": "joinDeadline",
          "type": "uint256"
        }
      ],
      "stateMutability": "view",
      "type": "function"
    },
    {
      "inputs": [
        {
          "internalType": "address",
          "name": "to",
          "type": "address"
        }
      ],
      "name": "transferOwnership",
      "outputs": [],
      "stateMutability": "nonpayable",
      "type": "function"
    }
  ],
  "bytecode": "0x608060405260016004553480156200001657600080fd5b50338060008073ffffffffffffffffffffffffffffffffffffffff168273ffffffffffffffffffffffffffffffffffffffff1614156200008d576040517f08c379a0000000000000000000000000000000000000000000000000000000008152600401620000849062000370565b60405180910390fd5b81600660006101000a81548173ffffffffffffffffffffffffffffffffffffffff021916908373ffffffffffffffffffffffffffffffffffffffff160217905550600073ffffffffffffffffffffffffffffffffffffffff168173ffffffffffffffffffffffffffffffffffffffff1614620001155762000114816200016860201b60201c565b5b5050506200013d73326c977e6efc84e512bb9c30f76e30c160ed06fb6200029a60201b60201c565b6200016273edaa6962cf1368a92e244ddc11aac49c0a0acc37620002de60201b60201c565b62000417565b3373ffffffffffffffffffffffffffffffffffffffff168173ffffffffffffffffffffffffffffffffffffffff161415620001da576040517f08c379a0000000000000000000000000000000000000000000000000000000008152600401620001d19062000392565b60405180910390fd5b80600760006101000a81548173ffffffffffffffffffffffffffffffffffffffff021916908373ffffffffffffffffffffffffffffffffffffffff1602179055508073ffffffffffffffffffffffffffffffffffffffff16600660009054906101000a900473ffffffffffffffffffffffffffffffffffffffff1673ffffffffffffffffffffffffffffffffffffffff167fed8889f560326eb138920d842192f0eb3dd22b4f139c87a2c57538e05bae127860405160405180910390a350565b80600260006101000a81548173ffffffffffffffffffffffffffffffffffffffff021916908373ffffffffffffffffffffffffffffffffffffffff16021790555050565b80600360006101000a81548173ffffffffffffffffffffffffffffffffffffffff021916908373ffffffffffffffffffffffffffffffffffffffff16021790555050565b600062000331601883620003b4565b91506200033e82620003c5565b602082019050919050565b600062000358601783620003b4565b91506200036582620003ee565b602082019050919050565b600060208201905081810360008301526200038b8162000322565b9050919050565b60006020820190508181036000830152620003ad8162000349565b9050919050565b600082825260208201905092915050565b7f43616e6e6f7420736574206f776e657220746f207a65726f0000000000000000600082015250565b7f43616e6e6f74207472616e7366657220746f2073656c66000000000000000000600082015250565b614c3880620004276000396000f3fe6080604052600436106101135760003560e01c8063c6d60eda116100a0578063ebadb4b811610064578063ebadb4b8146103c2578063f2fde38b146103ff578063f7b70b2814610428578063f7ba6e8b1461046d578063f7e4a35d1461049657610113565b8063c6d60eda146102ca578063ccb8e60e146102f3578063d0af7d2a14610338578063df9bbefc1461037d578063e51422721461039957610113565b80638da5cb5b116100e75780638da5cb5b146101d35780639ac6f0a2146101fe5780639bb517f01461023b578063a403843914610278578063b73d2b63146102a157610113565b8062573fd01461011857806331b58330146101555780636b1fbc901461019357806379ba5097146101bc575b600080fd5b34801561012457600080fd5b5061013f600480360381019061013a9190613494565b6104c1565b60405161014c9190613fd7565b60405180910390f35b34801561016157600080fd5b5061017c6004803603810190610177919061358c565b61053f565b60405161018a929190613dd8565b60405180910390f35b34801561019f57600080fd5b506101ba60048036038101906101b59190613660565b610590565b005b3480156101c857600080fd5b506101d161099d565b005b3480156101df57600080fd5b506101e8610b34565b6040516101f59190613dbd565b60405180910390f35b34801561020a57600080fd5b506102256004803603810190610220919061358c565b610b5e565b6040516102329190613fbb565b60405180910390f35b34801561024757600080fd5b50610262600480360381019061025d919061355f565b610c6e565b60405161026f9190613ed7565b60405180910390f35b34801561028457600080fd5b5061029f600480360381019061029a919061355f565b610eca565b005b3480156102ad57600080fd5b506102c860048036038101906102c3919061355f565b6113c2565b005b3480156102d657600080fd5b506102f160048036038101906102ec9190613503565b611545565b005b3480156102ff57600080fd5b5061031a6004803603810190610315919061355f565b611726565b60405161032f999897969594939291906140cb565b60405180910390f35b34801561034457600080fd5b5061035f600480360381019061035a9190613454565b611794565b604051610374999897969594939291906140cb565b60405180910390f35b610397600480360381019061039291906135cc565b61181f565b005b3480156103a557600080fd5b506103c060048036038101906103bb9190613503565b611eaf565b005b3480156103ce57600080fd5b506103e960048036038101906103e49190613427565b612090565b6040516103f69190613eb5565b60405180910390f35b34801561040b57600080fd5b5061042660048036038101906104219190613427565b612263565b005b34801561043457600080fd5b5061044f600480360381019061044a919061355f565b612277565b604051610464999897969594939291906140cb565b60405180910390f35b34801561047957600080fd5b50610494600480360381019061048f919061360d565b6122e5565b005b3480156104a257600080fd5b506104ab612501565b6040516104b89190613fd7565b60405180910390f35b60006104cb612507565b6000805b600b811015610534576008600085815260200190815260200160002060008683600b8110610500576104ff61491f565b5b60200201518152602001908152602001600020548261051f919061438e565b9150808061052c906147ef565b9150506104cf565b508091505092915050565b600c602052816000526040600020602052806000526040600020600091509150508060000160009054906101000a900473ffffffffffffffffffffffffffffffffffffffff169080600c0154905082565b610598612507565b600f60008154809291906105ab906147ef565b9190505550604051806101400160405280600f54815260200186815260200185815260200160008152602001600073ffffffffffffffffffffffffffffffffffffffff16815260200160008152602001600067ffffffffffffffff8111156106165761061561494e565b5b6040519080825280602002602001820160405280156106445781602001602082028036833780820191505090505b50815260200184815260200183815260200182815250600b6000600f5481526020019081526020016000206000820151816000015560208201518160010155604082015181600201556060820151816003015560808201518160040160006101000a81548173ffffffffffffffffffffffffffffffffffffffff021916908373ffffffffffffffffffffffffffffffffffffffff16021790555060a0820151816005015560c082015181600601908051906020019061070492919061306e565b5060e0820151816007015561010082015181600801556101208201518160090155905050600b6000600f548152602001908152602001600020600e6000878152602001908152602001600020600082015481600001556001820154816001015560028201548160020155600382015481600301556004820160009054906101000a900473ffffffffffffffffffffffffffffffffffffffff168160040160006101000a81548173ffffffffffffffffffffffffffffffffffffffff021916908373ffffffffffffffffffffffffffffffffffffffff1602179055506005820154816005015560068201816006019080546107ff9291906130f8565b506007820154816007015560088201548160080155600982015481600901559050507f2cec8bb16395c13b56cce009ed1f84b9f2f14dd273a3b8ec1b4c09789b8ecc43600b6000600f54815260200190815260200160002060000154600b6000600f54815260200190815260200160002060010154600b6000600f54815260200190815260200160002060020154600b6000600f54815260200190815260200160002060030154600b6000600f54815260200190815260200160002060040160009054906101000a900473ffffffffffffffffffffffffffffffffffffffff16600b6000600f54815260200190815260200160002060050154600b6000600f548152602001908152602001600020600601600b6000600f5481526020019081526020016000206008015460405161093d989796959493929190614046565b60405180910390a180831015806109545750818310155b8061095f5750818110155b15610996576040517fca1d716900000000000000000000000000000000000000000000000000000000815260040160405180910390fd5b5050505050565b600760009054906101000a900473ffffffffffffffffffffffffffffffffffffffff1673ffffffffffffffffffffffffffffffffffffffff163373ffffffffffffffffffffffffffffffffffffffff1614610a2d576040517f08c379a0000000000000000000000000000000000000000000000000000000008152600401610a2490613f1b565b60405180910390fd5b6000600660009054906101000a900473ffffffffffffffffffffffffffffffffffffffff16905033600660006101000a81548173ffffffffffffffffffffffffffffffffffffffff021916908373ffffffffffffffffffffffffffffffffffffffff1602179055506000600760006101000a81548173ffffffffffffffffffffffffffffffffffffffff021916908373ffffffffffffffffffffffffffffffffffffffff1602179055503373ffffffffffffffffffffffffffffffffffffffff168173ffffffffffffffffffffffffffffffffffffffff167f8be0079c531659141344cd1fd0a4f28419497f9722a3daafe3b4186f6b6457e060405160405180910390a350565b6000600660009054906101000a900473ffffffffffffffffffffffffffffffffffffffff16905090565b610b6661314a565b600c600084815260200190815260200160002060008373ffffffffffffffffffffffffffffffffffffffff1673ffffffffffffffffffffffffffffffffffffffff1681526020019081526020016000206040518060600160405290816000820160009054906101000a900473ffffffffffffffffffffffffffffffffffffffff1673ffffffffffffffffffffffffffffffffffffffff1673ffffffffffffffffffffffffffffffffffffffff16815260200160018201600b806020026040519081016040528092919082600b8015610c53576020028201915b815481526020019060010190808311610c3f575b50505050508152602001600c82015481525050905092915050565b60606000600b6000848152602001908152602001600020600601805480602002602001604051908101604052809291908181526020018280548015610d0857602002820191906000526020600020905b8160009054906101000a900473ffffffffffffffffffffffffffffffffffffffff1673ffffffffffffffffffffffffffffffffffffffff1681526020019060010190808311610cbe575b505050505090506000815167ffffffffffffffff811115610d2c57610d2b61494e565b5b604051908082528060200260200182016040528015610d6557816020015b610d5261314a565b815260200190600190039081610d4a5790505b50905060005b8251811015610ebf57600c60008681526020019081526020016000206000848381518110610d9c57610d9b61491f565b5b602002602001015173ffffffffffffffffffffffffffffffffffffffff1673ffffffffffffffffffffffffffffffffffffffff1681526020019081526020016000206040518060600160405290816000820160009054906101000a900473ffffffffffffffffffffffffffffffffffffffff1673ffffffffffffffffffffffffffffffffffffffff1673ffffffffffffffffffffffffffffffffffffffff16815260200160018201600b806020026040519081016040528092919082600b8015610e7b576020028201915b815481526020019060010190808311610e67575b50505050508152602001600c82015481525050828281518110610ea157610ea061491f565b5b60200260200101819052508080610eb7906147ef565b915050610d6b565b508092505050919050565b610ed2612507565b6000600b60008381526020019081526020016000209050600080826005015467ffffffffffffffff811115610f0a57610f0961494e565b5b604051908082528060200260200182016040528015610f385781602001602082028036833780820191505090505b5090506000836005015467ffffffffffffffff811115610f5b57610f5a61494e565b5b604051908082528060200260200182016040528015610f895781602001602082028036833780820191505090505b5090506000846005015467ffffffffffffffff811115610fac57610fab61494e565b5b604051908082528060200260200182016040528015610fe557816020015b610fd2613187565b815260200190600190039081610fca5790505b50905060005b85600501548110156112c6576000600c600089815260200190815260200160002060008860060184815481106110245761102361491f565b5b9060005260206000200160009054906101000a900473ffffffffffffffffffffffffffffffffffffffff1673ffffffffffffffffffffffffffffffffffffffff1673ffffffffffffffffffffffffffffffffffffffff16815260200190815260200160002090506110d481600101600b806020026040519081016040528092919082600b80156110c9576020028201915b8154815260200190600101908083116110b5575b5050505050896104c1565b81600c018190555080600c01548483815181106110f4576110f361491f565b5b6020026020010181815250508060000160009054906101000a900473ffffffffffffffffffffffffffffffffffffffff168583815181106111385761113761491f565b5b602002602001019073ffffffffffffffffffffffffffffffffffffffff16908173ffffffffffffffffffffffffffffffffffffffff168152505080600101600b806020026040519081016040528092919082600b80156111ad576020028201915b815481526020019060010190808311611199575b50505050508383815181106111c5576111c461491f565b5b60200260200101819052508581600c01541115611244578060000160009054906101000a900473ffffffffffffffffffffffffffffffffffffffff168760040160006101000a81548173ffffffffffffffffffffffffffffffffffffffff021916908373ffffffffffffffffffffffffffffffffffffffff1602179055505b7ff0a4f326a2e0d99c333cd02956eb100b9832a6579fd91cef5ca90aba27653c7a8888600101548360000160009054906101000a900473ffffffffffffffffffffffffffffffffffffffff1684600c0154856001016040516112aa959493929190613ff2565b60405180910390a15080806112be906147ef565b915050610feb565b508460040160009054906101000a900473ffffffffffffffffffffffffffffffffffffffff1673ffffffffffffffffffffffffffffffffffffffff166108fc86600301549081150290604051600060405180830381858888f19350505050158015611335573d6000803e3d6000fd5b507fc5362c29f1f0e0723bc7a5777b0efb8340a4d4421f539652c7d9965031ecfa5c85600001548660010154876002015488600301548960040160009054906101000a900473ffffffffffffffffffffffffffffffffffffffff168a600501548b6006018c600801546040516113b2989796959493929190614046565b60405180910390a1505050505050565b6113ca612507565b6000600b600083815260200190815260200160002060405180610140016040529081600082015481526020016001820154815260200160028201548152602001600382015481526020016004820160009054906101000a900473ffffffffffffffffffffffffffffffffffffffff1673ffffffffffffffffffffffffffffffffffffffff1673ffffffffffffffffffffffffffffffffffffffff16815260200160058201548152602001600682018054806020026020016040519081016040528092919081815260200182805480156114f857602002820191906000526020600020905b8160009054906101000a900473ffffffffffffffffffffffffffffffffffffffff1673ffffffffffffffffffffffffffffffffffffffff16815260200190600101908083116114ae575b505050505081526020016007820154815260200160088201548152602001600982015481525050905061153182826020015160016122e5565b61154182826020015160006122e5565b5050565b816005600082815260200190815260200160002060009054906101000a900473ffffffffffffffffffffffffffffffffffffffff1673ffffffffffffffffffffffffffffffffffffffff163373ffffffffffffffffffffffffffffffffffffffff16146115e7576040517f08c379a00000000000000000000000000000000000000000000000000000000081526004016115de90613f9b565b60405180910390fd5b6005600082815260200190815260200160002060006101000a81549073ffffffffffffffffffffffffffffffffffffffff0219169055807f7cc135e0cebb02c3480ae5d74d377283180a2601f8f644edf7987b009316c63a60405160405180910390a2827fc3bece9eff4a8466fe129f2f8e55aa63a0e1f3df7ed135aa9ee22657b204dc478360405161167a9190613ef9565b60405180910390a26000826000815181106116985761169761491f565b5b602002602001015190506000600190505b60178160ff16101561171f57838160ff16815181106116cb576116ca61491f565b5b6020026020010151600960008481526020019081526020016000206001836116f39190614614565b60ff16601681106117075761170661491f565b5b0181905550808061171790614838565b9150506116a9565b5050505050565b600e6020528060005260406000206000915090508060000154908060010154908060020154908060030154908060040160009054906101000a900473ffffffffffffffffffffffffffffffffffffffff16908060050154908060070154908060080154908060090154905089565b600d60205281600052604060002081815481106117b057600080fd5b90600052602060002090600a0201600091509150508060000154908060010154908060020154908060030154908060040160009054906101000a900473ffffffffffffffffffffffffffffffffffffffff16908060050154908060070154908060080154908060090154905089565b6000600b60008481526020019081526020016000209050600073ffffffffffffffffffffffffffffffffffffffff16600c600085815260200190815260200160002060003373ffffffffffffffffffffffffffffffffffffffff1673ffffffffffffffffffffffffffffffffffffffff16815260200190815260200160002060000160009054906101000a900473ffffffffffffffffffffffffffffffffffffffff1673ffffffffffffffffffffffffffffffffffffffff161461190f576040517fa5e2850c00000000000000000000000000000000000000000000000000000000815260040160405180910390fd5b8060020154816003016000828254611927919061438e565b92505081905550806005016000815480929190611943906147ef565b919050555080600601339080600181540180825580915050600190039060005260206000200160009091909190916101000a81548173ffffffffffffffffffffffffffffffffffffffff021916908373ffffffffffffffffffffffffffffffffffffffff16021790555060405180606001604052803373ffffffffffffffffffffffffffffffffffffffff1681526020018381526020016000815250600c600085815260200190815260200160002060003373ffffffffffffffffffffffffffffffffffffffff1673ffffffffffffffffffffffffffffffffffffffff16815260200190815260200160002060008201518160000160006101000a81548173ffffffffffffffffffffffffffffffffffffffff021916908373ffffffffffffffffffffffffffffffffffffffff16021790555060208201518160010190600b611a8d9291906131aa565b50604082015181600c0155905050600d60003373ffffffffffffffffffffffffffffffffffffffff1673ffffffffffffffffffffffffffffffffffffffff1681526020019081526020016000208190806001815401808255809150506001900390600052602060002090600a0201600090919091909150600082015481600001556001820154816001015560028201548160020155600382015481600301556004820160009054906101000a900473ffffffffffffffffffffffffffffffffffffffff168160040160006101000a81548173ffffffffffffffffffffffffffffffffffffffff021916908373ffffffffffffffffffffffffffffffffffffffff160217905550600582015481600501556006820181600601908054611bb39291906130f8565b5060078201548160070155600882015481600801556009820154816009015550507fc5362c29f1f0e0723bc7a5777b0efb8340a4d4421f539652c7d9965031ecfa5c81600001548260010154836002015484600301548560040160009054906101000a900473ffffffffffffffffffffffffffffffffffffffff168660050154876006018860080154604051611c50989796959493929190614046565b60405180910390a17fea6d66332dedc83de5fce0296cbfe7f77c250be6c3a77739d6988435a6d91959838260010154600c600087815260200190815260200160002060003373ffffffffffffffffffffffffffffffffffffffff1673ffffffffffffffffffffffffffffffffffffffff16815260200190815260200160002060000160009054906101000a900473ffffffffffffffffffffffffffffffffffffffff16600c600088815260200190815260200160002060003373ffffffffffffffffffffffffffffffffffffffff1673ffffffffffffffffffffffffffffffffffffffff168152602001908152602001600020600c0154600c600089815260200190815260200160002060003373ffffffffffffffffffffffffffffffffffffffff1673ffffffffffffffffffffffffffffffffffffffff168152602001908152602001600020600101604051611dab959493929190613ff2565b60405180910390a18060070154421015611df1576040517f8b5d736400000000000000000000000000000000000000000000000000000000815260040160405180910390fd5b8060080154421115611e2f576040517fcf1d066100000000000000000000000000000000000000000000000000000000815260040160405180910390fd5b8060090154421115611e6d576040517f8ed1948200000000000000000000000000000000000000000000000000000000815260040160405180910390fd5b80600201543414611eaa576040517f2ab758d700000000000000000000000000000000000000000000000000000000815260040160405180910390fd5b505050565b816005600082815260200190815260200160002060009054906101000a900473ffffffffffffffffffffffffffffffffffffffff1673ffffffffffffffffffffffffffffffffffffffff163373ffffffffffffffffffffffffffffffffffffffff1614611f51576040517f08c379a0000000000000000000000000000000000000000000000000000000008152600401611f4890613f9b565b60405180910390fd5b6005600082815260200190815260200160002060006101000a81549073ffffffffffffffffffffffffffffffffffffffff0219169055807f7cc135e0cebb02c3480ae5d74d377283180a2601f8f644edf7987b009316c63a60405160405180910390a2827fc3bece9eff4a8466fe129f2f8e55aa63a0e1f3df7ed135aa9ee22657b204dc4783604051611fe49190613ef9565b60405180910390a26000826000815181106120025761200161491f565b5b602002602001015190506000600190505b60178160ff16101561208957838160ff16815181106120355761203461491f565b5b6020026020010151600a600084815260200190815260200160002060018361205d9190614614565b60ff16601681106120715761207061491f565b5b0181905550808061208190614838565b915050612013565b5050505050565b6060600d60008373ffffffffffffffffffffffffffffffffffffffff1673ffffffffffffffffffffffffffffffffffffffff168152602001908152602001600020805480602002602001604051908101604052809291908181526020016000905b8282101561225857838290600052602060002090600a020160405180610140016040529081600082015481526020016001820154815260200160028201548152602001600382015481526020016004820160009054906101000a900473ffffffffffffffffffffffffffffffffffffffff1673ffffffffffffffffffffffffffffffffffffffff1673ffffffffffffffffffffffffffffffffffffffff168152602001600582015481526020016006820180548060200260200160405190810160405280929190818152602001828054801561222257602002820191906000526020600020905b8160009054906101000a900473ffffffffffffffffffffffffffffffffffffffff1673ffffffffffffffffffffffffffffffffffffffff16815260200190600101908083116121d8575b505050505081526020016007820154815260200160088201548152602001600982015481525050815260200190600101906120f1565b505050509050919050565b61226b612507565b61227481612599565b50565b600b6020528060005260406000206000915090508060000154908060010154908060020154908060030154908060040160009054906101000a900473ffffffffffffffffffffffffffffffffffffffff16908060050154908060070154908060080154908060090154905089565b6122ed612507565b600081156123045763e514227260e01b905061230f565b63c6d60eda60e01b90505b600061233c7f343132383731313836623437343939666134393236626364613235323636373430846126c8565b90506123b96040518060400160405280600381526020017f6765740000000000000000000000000000000000000000000000000000000000815250612380866126f9565b612389886126f9565b60405160200161239a929190613d83565b6040516020818303038152906040528361285a9092919063ffffffff16565b82156124435761243e6040518060400160405280600481526020017f70617468000000000000000000000000000000000000000000000000000000008152506040518060400160405280600e81526020017f646174612c706c617965722d69640000000000000000000000000000000000008152508361285a9092919063ffffffff16565b6124c3565b6124c26040518060400160405280600481526020017f70617468000000000000000000000000000000000000000000000000000000008152506040518060400160405280600b81526020017f646174612c73636f7265730000000000000000000000000000000000000000008152508361285a9092919063ffffffff16565b5b6124f98160056064670de0b6b3a764000060006124e09190614586565b6124ea91906143e4565b6124f49190614586565b61288d565b505050505050565b600f5481565b600660009054906101000a900473ffffffffffffffffffffffffffffffffffffffff1673ffffffffffffffffffffffffffffffffffffffff163373ffffffffffffffffffffffffffffffffffffffff1614612597576040517f08c379a000000000000000000000000000000000000000000000000000000000815260040161258e90613f5b565b60405180910390fd5b565b3373ffffffffffffffffffffffffffffffffffffffff168173ffffffffffffffffffffffffffffffffffffffff161415612608576040517f08c379a00000000000000000000000000000000000000000000000000000000081526004016125ff90613f7b565b60405180910390fd5b80600760006101000a81548173ffffffffffffffffffffffffffffffffffffffff021916908373ffffffffffffffffffffffffffffffffffffffff1602179055508073ffffffffffffffffffffffffffffffffffffffff16600660009054906101000a900473ffffffffffffffffffffffffffffffffffffffff1673ffffffffffffffffffffffffffffffffffffffff167fed8889f560326eb138920d842192f0eb3dd22b4f139c87a2c57538e05bae127860405160405180910390a350565b6126d06131ea565b6126d86131ea565b6126ef858585846128c4909392919063ffffffff16565b9150509392505050565b60606000821415612741576040518060400160405280600181526020017f30000000000000000000000000000000000000000000000000000000000000008152509050612855565b600082905060005b6000821461277357808061275c906147ef565b915050600a8261276c91906143e4565b9150612749565b60008167ffffffffffffffff81111561278f5761278e61494e565b5b6040519080825280601f01601f1916602001820160405280156127c15781602001600182028036833780820191505090505b5090505b6000851461284e576001826127da91906145e0565b9150600a856127e99190614890565b60306127f5919061438e565b60f81b81838151811061280b5761280a61491f565b5b60200101907effffffffffffffffffffffffffffffffffffffffffffffffffffffffffffff1916908160001a905350600a8561284791906143e4565b94506127c5565b8093505050505b919050565b61287182846080015161297490919063ffffffff16565b61288881846080015161297490919063ffffffff16565b505050565b60006128bc600360009054906101000a900473ffffffffffffffffffffffffffffffffffffffff168484612999565b905092915050565b6128cc6131ea565b6128dc8560800151610100612a63565b508385600001818152505082856020019073ffffffffffffffffffffffffffffffffffffffff16908173ffffffffffffffffffffffffffffffffffffffff16815250508185604001907bffffffffffffffffffffffffffffffffffffffffffffffffffffffff191690817bffffffffffffffffffffffffffffffffffffffffffffffffffffffff191681525050849050949350505050565b6129818260038351612acd565b6129948183612c5290919063ffffffff16565b505050565b60008060045490506001816129ae919061438e565b6004819055506000633c6d41b960e01b600080876000015188604001518660028b60800151600001516040516024016129ed9796959493929190613e01565b604051602081830303815290604052907bffffffffffffffffffffffffffffffffffffffffffffffffffffffff19166020820180517bffffffffffffffffffffffffffffffffffffffffffffffffffffffff83818316178352505050509050612a5886838684612c74565b925050509392505050565b612a6b613257565b6000602083612a7a9190614890565b14612aa657602082612a8c9190614890565b6020612a9891906145e0565b82612aa3919061438e565b91505b81836020018181525050604051808452600081528281016020016040525082905092915050565b60178167ffffffffffffffff1611612b0457612afe8160058460ff16901b60ff161784612e1890919063ffffffff16565b50612c4d565b60ff8167ffffffffffffffff1611612b5a57612b33601860058460ff16901b1784612e1890919063ffffffff16565b50612b548167ffffffffffffffff16600185612e389092919063ffffffff16565b50612c4c565b61ffff8167ffffffffffffffff1611612bb157612b8a601960058460ff16901b1784612e1890919063ffffffff16565b50612bab8167ffffffffffffffff16600285612e389092919063ffffffff16565b50612c4b565b63ffffffff8167ffffffffffffffff1611612c0a57612be3601a60058460ff16901b1784612e1890919063ffffffff16565b50612c048167ffffffffffffffff16600485612e389092919063ffffffff16565b50612c4a565b612c27601b60058460ff16901b1784612e1890919063ffffffff16565b50612c488167ffffffffffffffff16600885612e389092919063ffffffff16565b505b5b5b5b505050565b612c5a613257565b612c6c83846000015151848551612e5a565b905092915050565b60003084604051602001612c89929190613d57565b604051602081830303815290604052805190602001209050846005600083815260200190815260200160002060006101000a81548173ffffffffffffffffffffffffffffffffffffffff021916908373ffffffffffffffffffffffffffffffffffffffff160217905550807fb5e6e01e79f91267dc17b4e6314d5d4d03593d2ceee0fbb452b750bd70ea5af960405160405180910390a2600260009054906101000a900473ffffffffffffffffffffffffffffffffffffffff1673ffffffffffffffffffffffffffffffffffffffff16634000aea08685856040518463ffffffff1660e01b8152600401612d7f93929190613e77565b602060405180830381600087803b158015612d9957600080fd5b505af1158015612dad573d6000803e3d6000fd5b505050506040513d601f19601f82011682018060405250810190612dd191906134d6565b612e10576040517f08c379a0000000000000000000000000000000000000000000000000000000008152600401612e0790613f3b565b60405180910390fd5b949350505050565b612e20613257565b612e308384600001515184612f49565b905092915050565b612e40613257565b612e51848560000151518585612fa0565b90509392505050565b612e62613257565b8251821115612e7057600080fd5b84602001518285612e81919061438e565b1115612eb657612eb5856002612ea688602001518887612ea1919061438e565b61302e565b612eb09190614586565b61304a565b5b600080865180518760208301019350808887011115612ed55787860182525b60208701925050505b60208410612f1c5780518252602082612ef7919061438e565b9150602081612f06919061438e565b9050602084612f1591906145e0565b9350612ede565b60006001856020036101000a03905080198251168184511681811785525050508692505050949350505050565b612f51613257565b83602001518310612f7757612f768460028660200151612f719190614586565b61304a565b5b8351805160208583010184815381861415612f93576001820183525b5050508390509392505050565b612fa8613257565b84602001518483612fb9919061438e565b1115612fe157612fe08560028685612fd1919061438e565b612fdb9190614586565b61304a565b5b6000600183610100612ff39190614468565b612ffd91906145e0565b905085518386820101858319825116178152815185880111156130205784870182525b505085915050949350505050565b60008183111561304057829050613044565b8190505b92915050565b60008260000151905061305d8383612a63565b506130688382612c52565b50505050565b8280548282559060005260206000209081019282156130e7579160200282015b828111156130e65782518260006101000a81548173ffffffffffffffffffffffffffffffffffffffff021916908373ffffffffffffffffffffffffffffffffffffffff1602179055509160200191906001019061308e565b5b5090506130f49190613271565b5090565b8280548282559060005260206000209081019282156131395760005260206000209182015b8281111561313857825482559160010191906001019061311d565b5b5090506131469190613271565b5090565b6040518060600160405280600073ffffffffffffffffffffffffffffffffffffffff16815260200161317a613187565b8152602001600081525090565b604051806101600160405280600b90602082028036833780820191505090505090565b82600b81019282156131d9579160200282015b828111156131d85782518255916020019190600101906131bd565b5b5090506131e69190613271565b5090565b6040518060a0016040528060008019168152602001600073ffffffffffffffffffffffffffffffffffffffff16815260200160007bffffffffffffffffffffffffffffffffffffffffffffffffffffffff1916815260200160008152602001613251613257565b81525090565b604051806040016040528060608152602001600081525090565b5b8082111561328a576000816000905550600101613272565b5090565b60006132a161329c8461417d565b614158565b905080828560208602820111156132bb576132ba6149a8565b5b60005b858110156132eb57816132d18882613412565b8452602084019350602083019250506001810190506132be565b5050509392505050565b6000613308613303846141a3565b614158565b9050808382526020820190508285602086028201111561332b5761332a6149a8565b5b60005b8581101561335b57816133418882613412565b84526020840193506020830192505060018101905061332e565b5050509392505050565b60008135905061337481614ba6565b92915050565b600082601f83011261338f5761338e6149a3565b5b600b61339c84828561328e565b91505092915050565b600082601f8301126133ba576133b96149a3565b5b81356133ca8482602086016132f5565b91505092915050565b6000813590506133e281614bbd565b92915050565b6000815190506133f781614bbd565b92915050565b60008135905061340c81614bd4565b92915050565b60008135905061342181614beb565b92915050565b60006020828403121561343d5761343c6149b2565b5b600061344b84828501613365565b91505092915050565b6000806040838503121561346b5761346a6149b2565b5b600061347985828601613365565b925050602061348a85828601613412565b9150509250929050565b60008061018083850312156134ac576134ab6149b2565b5b60006134ba8582860161337a565b9250506101606134cc85828601613412565b9150509250929050565b6000602082840312156134ec576134eb6149b2565b5b60006134fa848285016133e8565b91505092915050565b6000806040838503121561351a576135196149b2565b5b6000613528858286016133fd565b925050602083013567ffffffffffffffff811115613549576135486149ad565b5b613555858286016133a5565b9150509250929050565b600060208284031215613575576135746149b2565b5b600061358384828501613412565b91505092915050565b600080604083850312156135a3576135a26149b2565b5b60006135b185828601613412565b92505060206135c285828601613365565b9150509250929050565b60008061018083850312156135e4576135e36149b2565b5b60006135f285828601613412565b92505060206136038582860161337a565b9150509250929050565b600080600060608486031215613626576136256149b2565b5b600061363486828701613412565b935050602061364586828701613412565b9250506040613656868287016133d3565b9150509250925092565b600080600080600060a0868803121561367c5761367b6149b2565b5b600061368a88828901613412565b955050602061369b88828901613412565b94505060406136ac88828901613412565b93505060606136bd88828901613412565b92505060806136ce88828901613412565b9150509295509295909350565b60006136e78383613765565b60208301905092915050565b60006136ff8383613bc0565b905092915050565b60006137138383613c9a565b6101a08301905092915050565b600061372c8383613d22565b60208301905092915050565b6137418161470f565b82525050565b61375081614684565b82525050565b61375f81614684565b82525050565b61376e81614672565b82525050565b61377d81614672565b82525050565b600061378e82614238565b61379881856142f6565b93506137a3836141cf565b8060005b838110156137d45781516137bb88826136db565b97506137c68361429b565b9250506001810190506137a7565b5085935050505092915050565b60006137ec82614243565b6137f68185614307565b9350613801836141df565b8060005b83811015613839576138168261497d565b61382088826136db565b975061382b836142a8565b925050600181019050613805565b5085935050505092915050565b60006138518261424e565b61385b8185614318565b93508360208202850161386d856141f4565b8060005b858110156138a9578484038952815161388a85826136f3565b9450613895836142b5565b925060208a01995050600181019050613871565b50829750879550505050505092915050565b60006138c682614259565b6138d08185614329565b93506138db83614204565b8060005b8381101561390c5781516138f38882613707565b97506138fe836142c2565b9250506001810190506138df565b5085935050505092915050565b61392281614264565b61392c818461433a565b925061393782614214565b8060005b8381101561396857815161394f8782613720565b965061395a836142cf565b92505060018101905061393b565b505050505050565b6139798161426f565b6139838184614345565b925061398e8261421e565b8060005b838110156139c6576139a382614990565b6139ad8782613720565b96506139b8836142dc565b925050600181019050613992565b505050505050565b60006139d98261427a565b6139e38185614350565b93506139ee83614228565b8060005b83811015613a1f578151613a068882613720565b9750613a11836142e9565b9250506001810190506139f2565b5085935050505092915050565b613a35816146a2565b82525050565b613a44816146ac565b82525050565b6000613a5582614285565b613a5f8185614361565b9350613a6f818560208601614757565b613a78816149b7565b840191505092915050565b613a94613a8f82614721565b614862565b82525050565b6000613aa582614290565b613aaf8185614383565b9350613abf818560208601614757565b80840191505092915050565b6000613ad8601683614372565b9150613ae3826149ef565b602082019050919050565b6000613afb602383614372565b9150613b0682614a18565b604082019050919050565b6000613b1e601683614372565b9150613b2982614a67565b602082019050919050565b6000613b41600b83614383565b9150613b4c82614a90565b600b82019050919050565b6000613b64601783614372565b9150613b6f82614ab9565b602082019050919050565b6000613b87602883614372565b9150613b9282614ae2565b604082019050919050565b6000613baa604183614383565b9150613bb582614b31565b604182019050919050565b600061014083016000830151613bd96000860182613d22565b506020830151613bec6020860182613d22565b506040830151613bff6040860182613d22565b506060830151613c126060860182613d22565b506080830151613c256080860182613747565b5060a0830151613c3860a0860182613d22565b5060c083015184820360c0860152613c508282613783565b91505060e0830151613c6560e0860182613d22565b50610100830151613c7a610100860182613d22565b50610120830151613c8f610120860182613d22565b508091505092915050565b6101a082016000820151613cb16000850182613765565b506020820151613cc46020850182613919565b506040820151613cd8610180850182613d22565b50505050565b6101a082016000820151613cf56000850182613765565b506020820151613d086020850182613919565b506040820151613d1c610180850182613d22565b50505050565b613d2b816146f8565b82525050565b613d3a816146f8565b82525050565b613d51613d4c826146f8565b614886565b82525050565b6000613d638285613a83565b601482019150613d738284613d40565b6020820191508190509392505050565b6000613d8e82613b9d565b9150613d9a8285613a9a565b9150613da582613b34565b9150613db18284613a9a565b91508190509392505050565b6000602082019050613dd26000830184613774565b92915050565b6000604082019050613ded6000830185613774565b613dfa6020830184613d31565b9392505050565b600060e082019050613e16600083018a613774565b613e236020830189613d31565b613e306040830188613a2c565b613e3d6060830187613a3b565b613e4a6080830186613d31565b613e5760a0830185613d31565b81810360c0830152613e698184613a4a565b905098975050505050505050565b6000606082019050613e8c6000830186613774565b613e996020830185613d31565b8181036040830152613eab8184613a4a565b9050949350505050565b60006020820190508181036000830152613ecf8184613846565b905092915050565b60006020820190508181036000830152613ef181846138bb565b905092915050565b60006020820190508181036000830152613f1381846139ce565b905092915050565b60006020820190508181036000830152613f3481613acb565b9050919050565b60006020820190508181036000830152613f5481613aee565b9050919050565b60006020820190508181036000830152613f7481613b11565b9050919050565b60006020820190508181036000830152613f9481613b57565b9050919050565b60006020820190508181036000830152613fb481613b7a565b9050919050565b60006101a082019050613fd16000830184613cde565b92915050565b6000602082019050613fec6000830184613d31565b92915050565b60006101e0820190506140086000830188613d31565b6140156020830187613d31565b6140226040830186613774565b61402f6060830185613d31565b61403c6080830184613970565b9695505050505050565b60006101008201905061405c600083018b613d31565b614069602083018a613d31565b6140766040830189613d31565b6140836060830188613d31565b6140906080830187613738565b61409d60a0830186613d31565b81810360c08301526140af81856137e1565b90506140be60e0830184613d31565b9998505050505050505050565b6000610120820190506140e1600083018c613d31565b6140ee602083018b613d31565b6140fb604083018a613d31565b6141086060830189613d31565b6141156080830188613756565b61412260a0830187613d31565b61412f60c0830186613d31565b61413c60e0830185613d31565b61414a610100830184613d31565b9a9950505050505050505050565b6000614162614173565b905061416e82826147be565b919050565b6000604051905090565b600067ffffffffffffffff8211156141985761419761494e565b5b602082029050919050565b600067ffffffffffffffff8211156141be576141bd61494e565b5b602082029050602081019050919050565b6000819050602082019050919050565b60008190508160005260206000209050919050565b6000819050602082019050919050565b6000819050602082019050919050565b6000819050919050565b6000819050919050565b6000819050602082019050919050565b600081519050919050565b600081549050919050565b600081519050919050565b600081519050919050565b6000600b9050919050565b6000600b9050919050565b600081519050919050565b600081519050919050565b600081519050919050565b6000602082019050919050565b6000600182019050919050565b6000602082019050919050565b6000602082019050919050565b6000602082019050919050565b6000600182019050919050565b6000602082019050919050565b600082825260208201905092915050565b600082825260208201905092915050565b600082825260208201905092915050565b600082825260208201905092915050565b600081905092915050565b600081905092915050565b600082825260208201905092915050565b600082825260208201905092915050565b600082825260208201905092915050565b600081905092915050565b6000614399826146f8565b91506143a4836146f8565b9250827fffffffffffffffffffffffffffffffffffffffffffffffffffffffffffffffff038211156143d9576143d86148c1565b5b828201905092915050565b60006143ef826146f8565b91506143fa836146f8565b92508261440a576144096148f0565b5b828204905092915050565b6000808291508390505b600185111561445f5780860481111561443b5761443a6148c1565b5b600185161561444a5780820291505b8081029050614458856149e2565b945061441f565b94509492505050565b6000614473826146f8565b915061447e836146f8565b92506144ab7fffffffffffffffffffffffffffffffffffffffffffffffffffffffffffffffff84846144b3565b905092915050565b6000826144c3576001905061457f565b816144d1576000905061457f565b81600181146144e757600281146144f157614520565b600191505061457f565b60ff841115614503576145026148c1565b5b8360020a91508482111561451a576145196148c1565b5b5061457f565b5060208310610133831016604e8410600b84101617156145555782820a9050838111156145505761454f6148c1565b5b61457f565b6145628484846001614415565b92509050818404811115614579576145786148c1565b5b81810290505b9392505050565b6000614591826146f8565b915061459c836146f8565b9250817fffffffffffffffffffffffffffffffffffffffffffffffffffffffffffffffff04831182151516156145d5576145d46148c1565b5b828202905092915050565b60006145eb826146f8565b91506145f6836146f8565b925082821015614609576146086148c1565b5b828203905092915050565b600061461f82614702565b915061462a83614702565b92508282101561463d5761463c6148c1565b5b828203905092915050565b600073ffffffffffffffffffffffffffffffffffffffff82169050919050565b6000819050919050565b600061467d826146d8565b9050919050565b600061468f826146d8565b9050919050565b60008115159050919050565b6000819050919050565b60007fffffffff0000000000000000000000000000000000000000000000000000000082169050919050565b600073ffffffffffffffffffffffffffffffffffffffff82169050919050565b6000819050919050565b600060ff82169050919050565b600061471a82614733565b9050919050565b600061472c82614733565b9050919050565b600061473e82614745565b9050919050565b6000614750826146d8565b9050919050565b60005b8381101561477557808201518184015260208101905061475a565b83811115614784576000848401525b50505050565b600061479d614798836149d5565b614648565b9050919050565b60006147b76147b2836149d5565b614668565b9050919050565b6147c7826149b7565b810181811067ffffffffffffffff821117156147e6576147e561494e565b5b80604052505050565b60006147fa826146f8565b91507fffffffffffffffffffffffffffffffffffffffffffffffffffffffffffffffff82141561482d5761482c6148c1565b5b600182019050919050565b600061484382614702565b915060ff821415614857576148566148c1565b5b600182019050919050565b600061486d82614874565b9050919050565b600061487f826149c8565b9050919050565b6000819050919050565b600061489b826146f8565b91506148a6836146f8565b9250826148b6576148b56148f0565b5b828206905092915050565b7f4e487b7100000000000000000000000000000000000000000000000000000000600052601160045260246000fd5b7f4e487b7100000000000000000000000000000000000000000000000000000000600052601260045260246000fd5b7f4e487b7100000000000000000000000000000000000000000000000000000000600052603260045260246000fd5b7f4e487b7100000000000000000000000000000000000000000000000000000000600052604160045260246000fd5b6000614989825461478a565b9050919050565b600061499c82546147a4565b9050919050565b600080fd5b600080fd5b600080fd5b600080fd5b6000601f19601f8301169050919050565b60008160601b9050919050565b60008160001c9050919050565b60008160011c9050919050565b7f4d7573742062652070726f706f736564206f776e657200000000000000000000600082015250565b7f756e61626c6520746f207472616e73666572416e6443616c6c20746f206f726160008201527f636c650000000000000000000000000000000000000000000000000000000000602082015250565b7f4f6e6c792063616c6c61626c65206279206f776e657200000000000000000000600082015250565b7f26636f6e7465737449643d000000000000000000000000000000000000000000600082015250565b7f43616e6e6f74207472616e7366657220746f2073656c66000000000000000000600082015250565b7f536f75726365206d75737420626520746865206f7261636c65206f662074686560008201527f2072657175657374000000000000000000000000000000000000000000000000602082015250565b7f68747470733a2f2f63727970746f2d66616e746173792d646170702e7665726360008201527f656c2e6170702f6170692f66616e74617379506f696e74733f6d61746368496460208201527f3d00000000000000000000000000000000000000000000000000000000000000604082015250565b614baf81614672565b8114614bba57600080fd5b50565b614bc681614696565b8114614bd157600080fd5b50565b614bdd816146a2565b8114614be857600080fd5b50565b614bf4816146f8565b8114614bff57600080fd5b5056fea2646970667358221220500608093a648238b0c6a59bd7ebfcba5d4d7bddc665670b72e6773f54a1ba4f64736f6c63430008070033",
  "linkReferences": {},
  "deployedLinkReferences": {}
}